:020000040800F2
:1000000000500020C51F000815200008152000081A
:100010001520000815200008152000080000000029
:100020000000000000000000000000001520000893
:10003000152000080000000015200008FD09000838
:1000400015200008152000081520000815200008BC
:1000500015200008152000081520000815200008AC
:10006000152000081520000815200008152000089C
:10007000152000081520000815200008152000088C
:10008000152000081520000815200008152000087C
:10009000152000081520000815200008152000086C
:1000A000152000081520000815200008152000085C
:1000B0000D0A00081520000815200008152000086A
:1000C000152000081520000815200008152000083C
:1000D00015200008F90A00088D0B000815200008FB
:1000E0001520000815200008000000001520000859
:1000F000152000081520000815200008152000080C
:1001000015200008152000081520000815200008FB
:1001100015200008152000081520000815200008EB
:1001200015200008152000081520000815200008DB
:1001300053B94AB9002908BF00281CBF4FF0FF314E
:100140004FF0FF3000F00CB8ADF1080C6DE904CEB3
:1001500001F062FFDDF804E0DDE9022304B070473E
:10016000704700BF0348044B834202D0034B03B1E6
:1001700018477047180000201800002000000000F9
:100180000548064B1B1AD90F01EBA301491002D0F9
:10019000034B03B1184770471800002018000020D7
:1001A0000000000010B5064C237843B9FFF7DAFFD2
:1001B000044B13B10448AFF300800123237010BD3A
:1001C00018000020000000000C23000808B5054BB3
:1001D0001BB105490548AFF30080BDE80840FFF7B3
:1001E000CFBF00BF000000001C0000200C2300084F
:1001F00070B50F4B0F4DAB42A3EB050607D00024A3
:10020000B61055F8043B01349847A642F9D802F0DD
:100210007DF8094D094B5E1BAB424FEAA60606D09E
:10022000002455F8043B01349847A642F9D870BD24
:10023000642A0008642A0008642A00086C2A00085E
:10024000704700BF704700BF024B13B1024800F077
:1002500005B870470000000069020008002301464D
:100260001A46184600F014B838B5074D074C2C1B39
:10027000A41005D0013C55F8043D9847002CF9D155
:10028000BDE8384002F048B8702A00086C2A00081F
:100290002DE9F8431B4D0646286898460F469146BF
:1002A000FFF7CEFF184B1C681CB3286865681F2D2C
:1002B00022DC4EB96B1C0235636044F82570FFF7F1
:1002C000C1FF0020BDE8F883012304EB8501C1F8DC
:1002D0008890D4F88821AB401A43022EC4F88821B4
:1002E000C1F80881E6D1D4F88C211A43C4F88C21D6
:1002F000E0E7064C1C60D8E7FFF7A4FF4FF0FF30A3
:10030000E0E700BF00000020380000203C00002093
:100310004FF08042064B1968536A126998B2D207AF
:1003200002D51B0458BF013140EA0140090C704757
:10033000003D0020034A116813685B1A8342FBD317
:10034000704700BF143D0020144B9A6942F004022C
:100350009A61DA6942F40032DA61114AD2F800385F
:1003600023F47F4343F49243C2F800384FF0402215
:100370000023C2F80C340B4B1B6803EB5003B3FB98
:10038000F0F042F22C03C2F80804C2F80C344FF02B
:10039000E0234022C3F80421704700BF0010024050
:1003A00000000140100000204FF04023D3F800244B
:1003B0001206FBD5C3F8040470470000034BD3F8C2
:1003C00000281206FBD5C3F804087047003001402E
:1003D00008B5411E11F8010F00B908BDFFF7EEFF87
:1003E000F8E77FB501AB00211E460A25B0FBF5F406
:1003F00005FB1402303203F8012B0246092A20467D
:1004000001F10101F2D80139705CFFF7D7FF002933
:10041000F9D104B070BD2DE9F04186B001AF0646B8
:100420000D460024B846304629460A220023FFF72D
:100430007FFE303207F8012B32462B460A2A73F131
:10044000000306460D4604F10104ECD2013C18F805
:100450000400FFF7B3FF002CF8D106B0BDE8F0812F
:1004600038B51C210446064D24FA01F303F00F03AE
:10047000E85C0439FFF7A2FF0B1DF5D138BD00BFC2
:10048000CF280008C11710B5044605D52D20FFF769
:1004900095FF644261EB41012046BDE81040FFF743
:1004A000BABF0068704708B50246FFF7FAFF034677
:1004B000101DFFF7F6FF0146184608BDF8B52B4B97
:1004C0002B4C9A69012042F009029A61DA690925E8
:1004D00042F40012DA61D4F8003C402623F07F4356
:1004E00043F0AA43C4F8003CC023C4F8103CFFF713
:1004F00021FF0120C4F8146CFFF71CFFC4F8106C36
:10050000FFF718FF013DF4D18027C4F8147CFFF7F2
:1005100011FFC4F8106CFFF70DFFC4F8107CFFF753
:1005200009FF4FF40042D4F8003C23F07F4343F02E
:100530005D43C4F8003C0F4B0F4CC3F800240F4A36
:10054000C3F8005411680E4DB1FBF4F1C3F8041464
:100550001168B1FBF5F1C3F81C141268B2FBF4F298
:100560000244C3F82024C3F80004F8BD0010024080
:10057000000001400050004040420F0010000020E9
:10058000400D03000B4BD3F8002442F40072C3F873
:100590000024D3F8142422F47062C3F81424D3F88E
:1005A000002442F40042C3F800240022C3F80024CF
:1005B000FFF784BF00500040014670B50A4D0B4C58
:1005C0002E68D4F814240A4001D0012008E0D4F8A1
:1005D000140410F4706004D12B689B1B042BF0D919
:1005E00070BD1046FCE700BF143D002000500040E5
:1005F000074A08491068D1F818349B0701D4012034
:10060000704713681B1A042BF5D90020704700BFF0
:10061000143D002000500040054B82B0D3F8142454
:100620000192D3F818340193019B02B0704700BFC8
:100630000050004070B50B4D0646D5F8003401203F
:1006400043F48073C5F800340C46FFF7B5FF40B1A2
:1006500044EA4604C5F810440220BDE87040FFF7A4
:10066000ABBF70BD0050004070B504460E46154645
:10067000FFF7BEFFF0B100212046FFF7DBFFC8B156
:100680008020FFF7C9FFFFF797FF98B10B4C802040
:10069000C4F81064FFF790FF60B10420C4F8105450
:1006A000FFF78AFF30B1D4F8003443F40073C4F884
:1006B000003470BDFFF766FF0020FAE700500040ED
:1006C0002DE9F0413F4C1F46D4F80034064643F470
:1006D0008063C4F8003488461546FFF789FF002878
:1006E0006CD000213046FFF7A5FF002866D080209F
:1006F000FFF792FFFFF760FF00285FD00420C4F8E7
:100700001084FFF759FF002858D0D4F8003443F480
:100710000073C4F80034FFF76BFF00284ED030465A
:100720000121FFF787FF0646002847D0012F19D186
:1007300072B6D4F8003423F48063C4F80034FFF7B1
:100740006BFFD4F8003443F40073C4F8003462B68D
:100750004020FFF731FF88B3D4F810342B703046B7
:10076000BDE8F081FFF758FF05F10B074020FFF7C8
:1007700023FF18B3D4F8103405F8013BAF42F5D18C
:100780000420FFF719FFC8B1D4F80034402023F447
:100790008063C4F80034D4F810343B70D4F80034CB
:1007A00043F40073C4F80034D4F810347B70FFF7BE
:1007B00003FF18B1D4F81034BB70D0E7FFF7E2FEA6
:1007C0000026CCE7005000400A46014602480123BB
:1007D0000078FFF775BF00BF0400002010B5044685
:1007E000FFF706FF20B9FFF7CDFE0024204610BD1D
:1007F00020460021FFF71EFF04460028F3D0FFF734
:100800000BFF054A0120D2F8003443F40073C2F80C
:100810000034FFF78FFDE9E70050004013B50023D7
:1008200068203E4C8DF807302070FFF7D7FF20B1CD
:100830003B4A136843F00103136075200DF1070173
:10084000FFF7C2FF28B19DF80730364A682B1360C6
:1008500018D069202070FFF7C1FF20B1304A13681B
:1008600043F00203136075200DF10701FFF7ACFFA1
:1008700010B9002002B010BD9DF80730294A682B3E
:100880001360F6D1247880226B212046FFF7ECFE1E
:100890000028EED06420FFF74DFD01226B21204699
:1008A000FFF7E2FE18B9002000F00100E2E70022A5
:1008B0006C212046FFF7D8FE0028F4D000226A21E0
:1008C0002046FFF7D1FE0028EDD003221A21204652
:1008D000FFF7CAFE0028E6D0092219212046FFF7BB
:1008E000C3FE0028DFD000221B212046FFF7BCFEFC
:1008F0000028D8D000221C212046FFF7B5FE002892
:10090000D1D0202237212046FFF7AEFE0028CAD0E2
:10091000012238212046FFF7A7FEC5E7040000208A
:1009200064120020601200204FF480732DE9F04122
:10093000B2B002930C23042503FB010102AE027A3C
:100940002C1DA318C02B41D803687719C8356D44F6
:1009500005F8C03C1D0A7D701D0C1B0EFB70A3B278
:100960000024BD701D19A242ADB232D80C301A4419
:10097000884295B2E3D148F606230021B520ADF8B0
:100980000430ADF80650FFF70FFD6220FFF70CFDB5
:100990000C460F460DF1040818F8010B013704440A
:1009A000E4B2FFF701FD2144042FC9B2F4D10027BE
:1009B000AF4219D32046FFF7F7FC0846FFF7F4FCD7
:1009C0004FF04022D2F800345B06FBD532B0BDE8D0
:1009D000F08147684FEAC40CC8356D4427FA0CF71C
:1009E00005F8C07C0134BDE7F05DFFF7DDFC044491
:1009F000E4B22144C9B20137DAE77047024A13680A
:100A000001331360704700BF143D00204FF0804158
:100A10000A69F0B52A4E9707336802F0010023D522
:100A2000496B8FB2002846D00D0444D4591C47EAC4
:100A300001440D0C2349C1E90045234C21680131D3
:100A40002160224C2168013121602149214C098813
:100A500089B2218020490C6820490C602049214C32
:100A60000D68256000240C6054071AD54FF08041B2
:100A7000896B8FB208B309041FD4591C47EA01449B
:100A80000D0C1949C1E90045184C216819B1184DE0
:100A900029680131296001212160164C216801314A
:100AA000216008B10133336002F00702D2434FF0F6
:100AB00080431A61F0BD1946B9E71946DEE700BF69
:100AC000003D0020F83C0020F43C0020541200209F
:100AD000E43C0020F03C0020E03C0020EC3C002006
:100AE000DC3C0020E83C0020083D0020103D0020B8
:100AF000581200205C1200201C4B10B5D3F80028BF
:100B000012F02F0F22D0140718BF1949D3F8040888
:100B10001EBF0B6801330B60910617D51549164CA3
:100B20000B6801330B6015490B8824689BB24CB1EC
:100B3000134C01332488C3F30A03A4B29C4201D0AE
:100B4000520704D00F4A13680133136010BD0A889E
:100B50000D4C92B2C0B2A0544FF040220B80D2F89C
:100B60000C3443F08003C2F80C34EFE7003001404E
:100B7000C0200020CC200020D0200020D620002043
:100B8000D4200020C4200020D82000204FF0402393
:100B9000D3F8003470B513F0280F19D0180748BFE8
:100BA000254A264E42BF1368013313604FF040239D
:100BB000234AD3F8043434881288A4B2651CC5F3E0
:100BC000090592B2AA4226D11B4A13680133136069
:100BD0004FF04023D3F80C2411061BD5D3F8002482
:100BE000120617D5174A18491088098880B289B2A9
:100BF00088421AD01188154889B2415CC9B2C3F83D
:100C0000041413880133C3F30A031380104A1368D2
:100C10000133136070BD0F4ADBB21355FFF778FB49
:100C20000D4B43F824003580D2E7D3F80C2422F092
:100C30008002C3F80C24EDE750120020DA280020CF
:100C4000D8280020D4200020D6200020D820002042
:100C5000C8200020DC380020DC28002000232DE9FB
:100C6000F04F864D9BB08DF847302B6843F48033AE
:100C70002B60834B2A68910300F1C580002B40F064
:100C8000C080804B804A1B68002613604FF47A7244
:100C9000B3FBF2F34FF0E022013B5361072396616F
:100CA0001361AB69794943F01003AB614B68784835
:100CB00023F4700343F400134B604FF400530B61B3
:100CC000AB69A1F5805143F4804343F00503AB6168
:100CD000D1F804386F4C23F47F6343F49263C1F876
:100CE00004384FF4E1216C4B6C4F1B6803F5613302
:100CF000B3FBF1F36A49C1F8083842F22C03C1F89A
:100D00000C382023C2F80431FFF762FB54F8040BBF
:100D1000FFF71AFB1420FFF70DFB07216148FFF7CF
:100D200003FE2420FFF740FB0021DFF87C8118F848
:100D3000010B002840F09D802A20FFF735FB0B09AE
:100D4000F85C01F00F01FFF72FFB785CFFF72CFB3D
:100D50000D20FFF729FB0A20FFF726FB4FF040226A
:100D6000D2F800345B06FBD564200136FFF7E2FAC7
:100D7000032ECBD14FF4E130FFF7E6FA72B6002430
:100D80004A4F4B4B3C801C8062B612214948FFF70A
:100D9000CBFD1420FFF7CEFA01214748FFF7C4FD31
:100DA0001420FFF7C7FA01214448FFF7BDFD0121D8
:100DB0004348FFF7B9FD6420FFF7BCFAFFF77EFB5D
:100DC000C820FFF7B7FAFFF729FD002840F08A8016
:100DD000E1223C4B3C481A60FFF7FAFA304AD2F85D
:100DE00000385C06FBD596204FF4005237490B685B
:100DF000B3FBF0F313F0010F244B14BF5A611A61D7
:100E0000F5E7013B36E7002B3FF43BAF1222304BB6
:100E10001A606B6823F4741323F4E06343F4E8135B
:100E200043F480636B602B6843F080732B60144B3A
:100E30002A68920104D4002B3FF423AF013BF7E76B
:100E4000002B3FF41EAF6B6823F0030343F0020353
:100E50006B606B6803F00C03082BFAD11D4B094A39
:100E60001D4913601D4A11600B4A13601C4A136030
:100E700007E74140FFF798FA59E700BF001002402A
:100E800040420F00140000207812002000100140A2
:100E900024230008502A00080C000020CF28000856
:100EA00000300140F0290008D0290008DA2800208D
:100EB000D8280020F8280008E0280008EC280008BE
:100EC000442A00087C12002030230008143D002032
:100ED0000020024000A24A04005125021000002018
:100EE00008000020AB699B4A43F00403AB61EB6947
:100EF000994943F00103EB61D2F80038012523F052
:100F0000FF0343F08803C2F800384FF08043C2F873
:100F10001468924A1C601268B2FBF1F2013A9A62BC
:100F20004FF6FF72DA6240F201125C629A6111229E
:100F30001A6207225D614FF080511C61DA604FF048
:100F4000E022C2F800111D6072B63B88844A9BB251
:100F5000138062B63A200DF14701FFF735FC72B6F7
:100F6000804B1C6062B61420FFF7E4F926467E48E9
:100F7000FFF72EFA7D48FFF72BFA7D48FFF728FA96
:100F80007C48FFF725FA7C48FFF722FA7B48FFF7F9
:100F90001FFA7B48FFF71CFA7A48FFF719FA7A48DC
:100FA000FFF716FA7948FFF713FA7948FFF710FAB6
:100FB0007848FFF70DFA7848FFF70AFA7748FFF705
:100FC00007FA774B1B78682B14BF39203820FFF7BE
:100FD000F5F97448FFF7FCF97348FFF7F9F973481E
:100FE000FFF7F6F97248FFF7F3F97248FFF7F0F9E7
:100FF0007148FFF7EDF97148FFF7EAF97048FFF71C
:10100000E7F9704BCDE90E44CDE90C44CDE9074436
:101010001D606D4D0A94069404940B9409940594F4
:1010200072B6FFF775F983468A4662B64C48674B3D
:1010300002881B8892B29BB29A4200F0CD82644B28
:1010400064499B5C51F822100132C2F3090202800C
:1010500052468B457AEB0202CDE9021ADBB202D28C
:10106000039A013A03922A78072A00F2C580DFE842
:1010700002F00409121A27344E65B52BD6D101238C
:101080002B70D3E7622B04D0A3F1B5004342434158
:10109000F6E70223F4E7504A1370504A1370504A9F
:1010A00013700323ECE74D494E4A13700A7813443A
:1010B0004B4ADBB20B7011780B4413700423DFE74B
:1010C0004649494A13800A781344454ADBB20B70FB
:1010D00011780B4413700523D2E7434A3F48118827
:1010E00041EA032111800278B1F5805F13443C4A44
:1010F000DBB203701078034413704FF000033B4AD7
:101100001380BDD899420CBF07230623B8E73748A0
:101110000288511C89B20180354883542F480278D7
:1011200013442F4ADBB203701078034413702E4B24
:101130001B888B427FF47AAF0723A1E7274A1278F6
:101140009A4217BF2B4A0823136801331CBF136050
:10115000002395E70000014040420F0008000020F6
:10116000D8280020103D0020652300088C230008AB
:10117000AF230008D2230008052400082724000814
:1011800056240008AC240008C3240008D724000813
:10119000F72400080E2500082D2500085525000815
:1011A00004000020C02400086B250008D525000895
:1011B00091260008E626000837270008AA2700081D
:1011C000C02700087C120020D4110020DA2800205B
:1011D000DC380020DC280020D3110020D2110020B0
:1011E000D1110020D0110020CE110020CC11002000
:1011F000CC01002048120020A74A12789A4240F001
:10120000DC81A64BA64F1978A64B38681A78A64BF6
:10121000013005291B8838600FD1022B05D1012A26
:1012200007D1A24A1368013313600022A04B1A7041
:10123000FCE6002AF9D19F4AF4E7022921D1322A9B
:1012400040F0D280082BF0D19B4A13680133136021
:101250009A4B1A689A4B1A609A4A5378D90701D563
:10126000994ADFE7908899490880D0881278984990
:10127000012A0880D9D903F00603042BD5D1954A59
:10128000D0E7012940F07481072A5DD15B2BCCD9CE
:10129000DDE902788B4B90491846C1E90078FFF7E9
:1012A00000F98E495A7D0860187D8D4908608D4986
:1012B000987D0A608C49920908608C4903F11800F6
:1012C0000A60D97D8A4A1160FFF7EBF8894A1060FD
:1012D00003F11C00FFF7E5F8874A106003F12400D2
:1012E000FFF7DFF8854A106003F12800FFF7D9F80F
:1012F000834A106003F12C00FFF7D3F8814A106095
:1013000003F13000FFF7CDF87F4A106003F134009D
:10131000FFF7C7F87D4A106003F13800FFF7C1F806
:101320007B4A106003F13C00FFF7BBF8794A10607C
:1013300003F14400FFF7B5F8774A1060B3F84C208A
:10134000764B1A60764A6DE7352A7FF46EAF072B2D
:101350007FF66BAF0C205B4A083B5179B3FBF0F38F
:10136000402928BF40214FF00008DBB2994228BF36
:1013700019466C4B5FFA88F0814202F10C0703F1C9
:10138000080312D84F48FFF78CF8674B186072B605
:10139000664B1A88664B1A80664B1A68664B1A7041
:1013A00062B6664B664A19703CE702F11000FFF71F
:1013B00078F817F804CC928903F808CC17F803CC16
:1013C000C0F3C00003F807CC17F802CC23F8042CB4
:1013D00003F806CC17F801CC3A4603F805CC03F81D
:1013E000020C08F10108C5E7152A7FF41EAF0F2B88
:1013F0007FF61BAF334A517B01297FF416AFD77AB2
:10140000103B5A09C3F34F13BB4238BFD7B2602F0A
:1014100088BF4C4ADFF8AC9088BF1368484683BF4A
:10142000013313604FF06008B846FFF73CF8464BB5
:10143000B9F80820C3E90001444B09F110001A80F3
:1014400099F80A20424B1A7099F80C20414B1A70F7
:10145000414BDDE90212C3E9001200233F4AD9B231
:1014600041450AD33E4B3F4A1F703F4B83F80080F3
:101470001368013313603D4AD4E60146944600F1F7
:10148000200E51F8049B71454CF8049BF9D10133AF
:1014900020322030E3E700BFD1110020D31100201B
:1014A0004C120020D0110020CE1100204412002048
:1014B000D411002040120020BC200020143D002048
:1014C000B0200020CC010020B4200020AE2000205D
:1014D000AC200020B8200020281200202412002078
:1014E00020120020181200201412002010120020D8
:1014F0001C1200200C1200200812002004120020F0
:1015000000120020FC110020F8110020F41100202E
:10151000F0110020EC110020E8110020E41100205F
:101520003C120020AC1E0020A81E0020F03C002031
:10153000A61E0020E83C0020A41E0020A51E0020BE
:10154000A01E0020301200209812002088120020D7
:10155000871200208612002090120020A012002086
:1015600084120020341200208512002080120020F6
:101570000D297FF45AAE012A7FF457AE102B7FF469
:1015800054AE0F490846FEF78CFF8B898A7BC97BD6
:1015900001F00F0172B60B4F02F0010238600A48E9
:1015A0000A43038007D1003B18BF0123074A136099
:1015B00062B6074A36E60023F8E7064A32E600BF7D
:1015C000CC010020E03C0020E43C0020DC3C00207A
:1015D0003812002048120020BA4B1B68A3B9BA4B3E
:1015E0001B688BB9042C0FD8B84F0E9A3B689B1A16
:1015F000002B09DB0121B648FFF796F93B6801345F
:1016000003F57A73E4B20E93AF4B1B680BB9042C4D
:1016100002D90122AB4B1A60DFF8B0B20F9ADBF8A7
:1016200000309B1A002B71DB72B6AA4BD3F800A0D6
:10163000A94BD3F80090A94BD3F80080A84B1F68A2
:1016400062B6A848FEF7C4FEDBF80000FEF7C9FE4C
:101650002C20FEF7B3FE9B4B1868FEF7C2FE2C2031
:10166000FEF7ACFE5046FEF7BCFE2C20FEF7A6FEB1
:101670004846FEF7B6FE2C20FEF7A0FE4046FEF7D9
:10168000B0FE2C20FEF79AFE3846FEF7AAFE2C206C
:10169000FEF794FE944B1868FEF7A3FE2C20FEF78D
:1016A0008DFE924B1F683846FEF79BFE2C20FEF7FE
:1016B00085FE8F4B1868FEF794FE2C20FEF77EFE09
:1016C0008C4B1868FEF78DFE2C20FEF777FE8A4BB8
:1016D0001888FEF786FE2C20FEF770FE874B1888D0
:1016E000FEF77FFE2C20FEF769FE002F00F0A2819E
:1016F000834BDBF800001B68C01AFEF772FE8148BE
:10170000FEF766FE714B1B6864330F93DFF8F891A8
:101710000B9AD9F80030934200F0998072B67B4B57
:101720001F887B4BBFB2D3F8008062B67948FEF7C2
:101730004FFE3846FEF755FE2C20FEF73FFE764B57
:101740001868FEF74EFE2C20FEF738FE4046FEF7E6
:1017500048FE2C20FEF732FE704BD3E90001FEF765
:101760005AFE2C20FEF72AFE6D4B1868FEF739FE54
:101770002C20FEF723FE6B4B1868FEF732FE2C2060
:10178000FEF71CFE684B1868FEF72BFE2C20FEF7B8
:1017900015FE664B1868FEF724FE2C20FEF70EFEA1
:1017A000634B1868FEF71DFE2C20FEF707FE614B09
:1017B0001868FEF767FE2C20FEF700FE5E4B1868E7
:1017C000FEF760FE2C20FEF7F9FD5C4B1868FEF773
:1017D00059FE2C20FEF7F2FD594B1868FEF701FE6A
:1017E0002C20FEF7EBFD574B1868FEF7FAFD2C2076
:1017F000FEF7E4FD544B1868FEF744FE2C20FEF77C
:10180000DDFD524B1868FEF73DFE2C20FEF7D6FD9D
:101810004F4B1868FEF736FE2C20FEF7CFFD4D4BE0
:101820001868FEF7DEFD2C20FEF7C8FD4A4B18684D
:10183000FEF7D7FD2C20FEF7C1FD484B1868FEF7D8
:10184000D0FD3048FEF7C4FDD9F800300B93444B6F
:1018500009991A688A4200F0D28072B61B6809930F
:10186000404BD3E90089294B1F883F4BBFB2D3F8C7
:1018700000B0274BD3F800A062B63C48FEF7A8FDA5
:101880000998FEF7AEFD3A48FEF7A2FD49464046EC
:10189000FEF7C1FD3748FEF79BFD3846FEF7A1FD78
:1018A0003548FEF795FD5846FEF79BFD3348FEF799
:1018B0008FFD5046FEF795FD3148FEF789FD164B2A
:1018C00018685FE0D020002034120020143D002072
:1018D000E0280008CC200020C8200020C4200020E0
:1018E000C0200020E627000850120020BC20002065
:1018F000B8200020B4200020AE200020AC20002022
:10190000B0200020C02400083C120020F03C002041
:10191000E83C0020ED2700082412002028120020B7
:10192000201200201C120020181200201412002087
:1019300010120020081200200C12002004120020B7
:1019400000120020FC110020F8110020F4110020EA
:10195000F0110020EC110020E8110020E41100201B
:10196000F43C0020F83C0020EC3C0020F327000869
:10197000FF2700080A280008152800082228000868
:101980002F280008FEF72DFD3A48FEF721FD3A4BBF
:101990001868FEF726FD3948FEF71AFD384B18681F
:1019A000FEF71FFD3748FEF713FD374B1868FEF7AB
:1019B00069FD3648FEF70CFD354B1868FEF762FDF1
:1019C0003448FEF705FD344B1868FEF75BFD3348DD
:1019D000FEF7FEFC324B1868FEF754FD3148FEF767
:1019E000F7FC314B1868FEF74DFD3048FEF7F0FC70
:1019F0002F4B1868FEF746FD2E48FEF7E9FC2E4BEC
:101A00001A68002A3FF40CAB72B62C4AD2E90012D5
:101A1000CDE9001200221A6062B63A200DF14701AA
:101A2000FEF7D2FE48B9264A013613680133136027
:101A3000FFF7F6BA4FF0FF305FE622480E233B2156
:101A4000007812AAFEF73CFE00283FD11C4A01365E
:101A50001368042E03F1010313607FF6E1AA1A480C
:101A6000FEF7B6FC1420FEF765FCFEF7D7FE002655
:101A7000FFF7D6BA3D2800082012002043280008AE
:101A80001C1200204C2800080812002055280008CD
:101A90000C1200205E2800080412002068280008AC
:101AA000F811002074280008F41100208028000894
:101AB000F0110020C0240008103D0020083D002047
:101AC00068120020040000208C280008059B079A5B
:101AD000134308D0059A009B9B1A0593079A019B14
:101AE00063EB02030793089B5F1CBDF848305BBAA9
:101AF000ADF85830BDF84A305BBAADF85A30BDF891
:101B00004C305BBAADF85C30BDF84E305BBAADF826
:101B10005E30BDF850305BBAADF86030BDF8523081
:101B20005BBAADF86230BDF854305BBAADF86430E2
:101B300072B6AC4BAC49D3E900AB0E68AB49B1F817
:101B40000080AB491FFA88F8D1F8009062B6B9F16D
:101B5000000F00F01F814FF47A71009BA6FB01611A
:101B60005345019B73EB0B00009BC0F0F880B3EB77
:101B70000A02019B63EB0B0396194FF08C0241EBB9
:101B8000030A9C499C4BB14272EB0A00C0F0DF8013
:101B90004FF001099948FEF71BFC0898FEF721FC5D
:101BA0002C20FEF70BFC4046FEF71BFC2C20514678
:101BB000FEF704FC3046FEF72EFC2C20FEF7FEFB61
:101BC0004846FEF70EFC2C20FEF7F8FBDDE900018D
:101BD000FEF721FC0026DFF828920DF1580838F9AD
:101BE000021B2C2029F81610FEF7E8FB002903DA67
:101BF0002D20FEF7E3FB494208460136FEF7F1FBD4
:101C0000072EECD17F48FEF7E3FB7F4B0C9AD3F80D
:101C10000080049B904518BF00230493B8F1000F87
:101C20004FD07A4B049A1B78934240F2B7807848A1
:101C300002F10109FEF7CCFB764B774E1888FEF7D0
:101C4000D0FB2C20FEF7BAFB744B5FFA89F91868B9
:101C5000FEF7C7FB2C20FEF7B1FB714B1878FEF79F
:101C6000C0FB2C20FEF7AAFB049B16F83300FEF7FE
:101C7000B8FB2C20FEF7A2FB049B06EBC306707892
:101C8000FEF7AFFB2C20FEF799FBB078FEF7A9FB1F
:101C90002C20FEF793FB96F90300FEF7F3FB2C20B4
:101CA000FEF78CFBB6F90400FEF7ECFB2C20FEF7E8
:101CB00085FBB079FEF795FB5248FEF789FBCDF81E
:101CC0001090584BD3F800A00D9B9A4500F0BE80B1
:101CD0005548FEF77DFB554B1888FEF782FB2C20FC
:101CE000FEF76CFB524BD3E90060FEF7B9FB3046C0
:101CF000FEF7B6FB2C20FEF761FB4E4B93F900007C
:101D0000FEF7C0FB2C20FEF759FB4B4B1878FEF773
:101D100068FB2C20FEF752FB484B1878FEF761FB5E
:101D20002C20FEF74BFB464B1878FEF75AFB2C2075
:101D3000FEF744FB434BD3E90001FEF76CFB31484F
:101D4000FEF746FB0023069302230A93FAE0F618F7
:101D500008F101086AF18C0A1FFA88F813E7BAEB58
:101D60000300019B234A6BEB0303864271EB030CD8
:101D700003D3361A61EB030A0AE7013843F1FF3354
:101D800008F1FF38801B63EB010316468C211FFA14
:101D900088F8EAE74E46CA46C846FBE691D12A488B
:101DA000FEF716FB1B4B1888FEF71BFB2C20FEF7DB
:101DB00005FB1A4B1868FEF714FB2C20FEF7FEFA01
:101DC000174B1878FEF70DFB2C20FEF7F7FA049856
:101DD000FEF707FB0B48FEF7FBFA049B0133DBB26F
:101DE00004936EE7F83C0020EC3C0020F03C00201F
:101DF000E83C0020FF9FE3D000601C2FA1280008D2
:101E0000D6110020C0240008A01E0020A51E00201E
:101E1000A6280008A61E0020AC1E0020A81E002038
:101E2000A41E002080120020B42800088812002080
:101E300098120020871200208612002085120020B0
:101E40008412002090120020AB2800080A9B002B6F
:101E500000F0A380524B1E78069B9E4240F2948075
:101E6000504E514806EB431603F1010BFEF7B0FA52
:101E7000307DFEF7B6FA2C20FEF7A0FA707DFEF753
:101E8000B0FA2C20FEF79AFAB07DFEF7AAFA2C20C1
:101E9000FEF794FAF07DFEF7A4FA2C20FEF78EFAF6
:101EA0003046FEF700FB81460846FEF7D9FA484661
:101EB000FEF7D6FA2C20FEF781FA06F10800FEF7AD
:101EC000F2FA81460846FEF7CBFA4846FEF7C8FA12
:101ED0002C20FEF773FA06F11000FEF7E2FAFEF787
:101EE000BFFA2C20FEF76AFA308BFEF77AFA2C2024
:101EF000FEF764FAB07EFEF774FA2C20FEF75EFA65
:101F0000F07E5FFA8BFB00F00F00FEF76AFA2C20E0
:101F1000FEF754FA307F00F00F00FEF762FA2C2033
:101F2000FEF74CFA707F00F00F00FEF75AFA2C20F3
:101F3000FEF744FAB07FFEF754FA1C48FEF748FA61
:101F4000CDF818B01A4B059A1F601A4B05980799DF
:101F50001A604FF47A720023FEF7EAF86422164BF7
:101F60001860B7FBF2F302FB1373032B4FF400531B
:101F7000124A94BF53611361009BCDE90C8A05930B
:101F8000019BCDE9073772E50D48FEF721FA30468F
:101F9000FEF727FA0548FEF71BFA0023D5E600BF37
:101FA00085120020A0120020BA280008C0240008D2
:101FB000741200206C1200207012002000100140EA
:101FC000C52800080D488546FEF717FD0C480D4949
:101FD0000D4A002302E0D458C4500433C4188C4284
:101FE000F9D30A4A0A4C002301E013600432A242EA
:101FF000FBD3FEF7FDF8FEF731FEFEE700500020B0
:102000000000002018000020702A0008180000209E
:10201000183D0020FEE700002DE9F047089D0F461F
:1020200004468E46002B48D18A42164661D9B2FA40
:1020300082F24AB1C2F1200301FA02FE20FA03F350
:10204000964043EA0E0E94404FEA164CBEFBFCF15C
:10205000B7B20CFB11EE01FB07F0230C43EA0E4371
:10206000984209D9F31801F1FF3E80F0ED809842C3
:1020700040F2EA80023933441B1AB3FBFCF00CFB3C
:10208000103300FB07F7A4B244EA0344A74209D97E
:10209000341900F1FF3380F0D980A74240F2D68096
:1020A0003444023840EA01400021E41B1DB1002302
:1020B000D440C5E90043BDE8F0878B4206D90DB195
:1020C000C5E9000100210846BDE8F087B3FA83F1B5
:1020D000002947D1BB4202D3824200F20481841A14
:1020E00067EB030201209646002DE4D0C5E9004EBF
:1020F000E1E7002A00F09080B2FA82F2002A40F074
:10210000A780881B0121370C1FFA86FEB0FBF7FC65
:1021100007FB1C00230C43EA00430EFB0CF0984223
:1021200007D9F3180CF1FF3802D2984200F2E08090
:10213000C4461B1AB3FBF7F007FB10330EFB00FE7F
:10214000A4B244EA0344A64507D9341900F1FF3389
:1021500002D2A64500F2C9801846A4EB0E0440EA5C
:102160000C40A3E7C1F120068B4022FA06FC4CEAA2
:10217000030C27FA06FA4FEA1C49BAFBF9F88F401C
:1021800020FA06F309FB18AA1FFA8CFE3B4300FA5B
:1021900001F708FB0EF01C0C44EA0A44A04202FAC4
:1021A00001F20BD91CEB040408F1FF3A80F099808E
:1021B000A04240F29680A8F102086444241A98B222
:1021C000B4FBF9F309FB134403FB0EFE40EA04449D
:1021D000A64508D91CEB040403F1FF307FD2A645C5
:1021E0007DD9023B644443EA0840A4EB0E04A0FB03
:1021F000028E74454346F14661D35ED055B1FA1A5A
:1022000064EB090404FA06F622FA01F31E43CC40FB
:10221000C5E9006400214EE743084FEA510C43EA48
:10222000C1710A0C42EA0C428BB2C407B2FBF6F150
:1022300043EA0243BCFBF6FCB646304637461F2253
:10224000181A41EA0C4161E7714615E7184629E77B
:10225000C2F1200321FA03F0964024FA03F39740D9
:102260003B43370CB0FBF7F807FB18001FFA86FE5C
:10227000190C41EA004108FB0EF0884204FA02F40E
:102280003AD9711808F1FF3C01D288421ED8091AC8
:10229000B1FBF7F808FB0EF007FB18119BB243EAFD
:1022A000014383422FD2F31808F1FF31C8D2834291
:1022B000C6D2A8F102013344C2E747459ED2B8EB2B
:1022C00002036EEB0C0E0138F14697E7301A014419
:1022D000A8F1020CB1FBF7F808FB0EF0DCE70346AF
:1022E00081E7D0466AE70846FEE63444023834E720
:1022F000ACF1020C33441CE7091AC446B1FBF7F8F1
:1023000008FB0EF0C8E741469AE700BFF8B500BFEA
:10231000F8BC08BC9E467047F8B500BFF8BC08BCC6
:042320009E4670471E
:102324002320626F6F74696E670D0A002320455283
:10233400524F523A204D505536303530206E6F741E
:1023440020666F756E643B20636865636B20332E73
:1023540033562F474E442F5042362F5042370D0AE2
:102364000023206D7075363035305F6639705F6ECE
:10237400617669676174696F6E5F70726F746F63A1
:102384006F6C5F76330D0A00232074696D65723DAE
:1023940074696D325F316D687A5F34386269745F75
:1023A400657874656E6465640D0A0023207070732B
:1023B4003D6639705F74705F7061305F74696D324F
:1023C4005F6368315F726973696E670D0A00232069
:1023D400747269676765723D6D7075363035305F4C
:1023E400646174615F72656164795F7061315F74A7
:1023F400696D325F6368325F726973696E670D0A73
:102404000023206C6F676765725F756172743D7538
:1024140073617274315F7061395F343630383030D3
:102424000D0A0023206639705F756172743D7573FF
:10243400617274325F7061325F7061335F31313564
:102444003230305F7562785F7274636D33696E0D1C
:102454000A0023206639705F6F75747075743D6E61
:1024640061765F7076745F31687A5F6E61765F73F0
:1024740061745F31687A5F72786D5F726177785FDB
:1024840031687A5F72786D5F73667262785F616CCF
:102494006C5F74696D5F74705F31687A5F677073C5
:1024A4005F677269640D0A00232073616D706C6547
:1024B4005F726174655F687A3D3130300D0A0023C4
:1024C40020616363656C5F72616E67655F673D324F
:1024D4000D0A002320616363656C5F7363616C653F
:1024E4005F6C73625F7065725F673D313633383499
:1024F4000D0A0023206779726F5F72616E67655FF2
:102504006470733D3235300D0A0023206779726F91
:102514005F7363616C655F6C73625F7065725F6447
:1025240070733D3133310D0A00232074656D70657D
:102534007261747572655F646567433D74656D703F
:102544005F7261772F3334302B33362E35330D0AD7
:102554000023206D70755F6932635F616464726526
:1025640073733D307836002320494D552C73616DCB
:10257400706C652C6770735F7765656B2C6770731F
:102584005F746F775F75732C74696D655F76616CCA
:1025940069642C74696D65725F75732C61785F7200
:1025A40061772C61795F7261772C617A5F726177F0
:1025B4002C74656D705F7261772C67785F726177D8
:1025C4002C67795F7261772C677A5F7261770D0A85
:1025D400002320474E53532C6770735F7765656BF8
:1025E4002C6770735F746F775F6D732C74696D659E
:1025F4005F76616C69642C72785F74696D65725F73
:1026040075732C6669782C6E756D5F73762C666CA9
:102614006167732C666C616773322C636172725FDD
:10262400736F6C6E2C6C61745F65372C6C6F6E5FAE
:1026340065372C686D736C5F6D6D2C685F616363C7
:102644005F6D6D2C765F6163635F6D6D2C76656C79
:102654005F6E5F6D6D732C76656C5F655F6D6D731A
:102664002C76656C5F645F6D6D732C675F7370654A
:1026740065645F6D6D732C735F6163635F6D6D7310
:102684002C70646F705F783130300D0A0023205352
:1026940041542C6770735F7765656B2C6770735F4B
:1026A400746F775F6D732C74696D655F76616C69A7
:1026B400642C676E73735F69642C73765F69642C32
:1026C400636E6F5F6462687A2C656C65765F6465BF
:1026D400672C617A696D5F6465672C757365640D39
:1026E4000A002320524157582C6770735F77656541
:1026F4006B2C7263765F746F775F663634686578C7
:102704002C6C6561705F732C7265635F73746174A4
:102714002C6E756D5F6D6561732C746F74616C5F85
:102724006D6561732C72785F74696D65725F757322
:102734000D0A002320524157585F4D4541532C67E1
:102744006E73735F69642C73765F69642C73696755
:102754005F69642C667265715F69642C70725F6670
:1027640036346865782C63705F6636346865782C17
:10277400646F5F6633326865782C6C6F636B5F6D72
:10278400732C636E6F2C70725F7374642C63705F50
:102794007374642C646F5F7374642C74726B5F73F2
:1027A4007461740D0A002320524157585F454E440A
:1027B4002C6E756D5F6D6561730D0A002320726167
:1027C40077785F666C6F61745F6865783D6965658D
:1027D400653735345F626974735F65786163740D5E
:1027E4000A00235254434D2C00474E53532C0023CC
:1027F4002073796E632C7070733D002C74696D6561
:10280400725F75733D002C6770735F7765656B3D10
:10281400002C6770735F746F775F6D733D002C7469
:10282400696D655F76616C69643D002C7076745FD8
:1028340069746F775F6D733D002C6669783D002C79
:102844006E756D5F73763D002C6C61745F65373D0A
:10285400002C6C6F6E5F65373D002C686D736C5F88
:102864006D6D3D002C76656C5F6E5F6D6D733D0024
:102874002C76656C5F655F6D6D733D002C76656CC1
:102884005F645F6D6D733D0023204552524F523A91
:10289400204932432072657472790D0A00494D55FE
:1028A4002C005341542C005341545F454E442C009A
:1028B400524157582C00524157585F4D4541532CB3
:1028C40000524157585F454E442C00303132333466
:1028D400353637383941424344454600A5029120F4
:1028E4000A000000010000003202912001000000F3
:1028F400010000000100213064000000020000001B
:102904000200213001000000020000000300212029
:102914000100000001000000070091200A000000EF
:1029240001000000160091200A00000001000000D0
:102934007E01912001000000010000002300052019
:10294400000000000100000030000520010000002C
:10295400010000000200054040420F000400000096
:102964000300054040420F0004000000040005403D
:10297400A08601000400000005000540A0860100B7
:102984000400000007000510010000000100000021
:1029940008000510010000000100000009000510F6
:1029A40001000000010000000A0005100100000001
:1029B400010000000B0005100100000001000000F0
:1029C4000C00052001000000010000005055425891
:1029D4002C34312C312C303030312C303030312CFF
:1029E4003131353230302C300000000001005240CB
:1029F40000C2010004000000010073100100000087
:102A0400010000000200731000000000010000003B
:102A140004007310010000000100000001007410A4
:102A2400010000000100000002007410000000001A
:102A34000100000004007410000000000100000008
:102A44006902912001000000010000000008070055
:082A54000096000000C2010021
:082A5C00BCF5FF7F0100000042
:082A640049020008CD01000841
:042A6C00A5010008B8
:102A7000340000206800000000127A0000127A0082
:082A800000127A0000127A0036
:0400000508001FC50B
:00000001FF
