:020000040800F2
:1000000000500020A1210008F1210008F121000882
:10001000F1210008F1210008F12100080000000092
:10002000000000000000000000000000F1210008B6
:10003000F121000800000000F12100080D0A00086D
:10004000F1210008F1210008F1210008F121000848
:10005000F1210008F1210008F1210008F121000838
:10006000F1210008F1210008F1210008F121000828
:10007000F1210008F1210008F1210008F121000818
:10008000F1210008F1210008F1210008F121000808
:10009000F1210008F1210008F1210008F1210008F8
:1000A000F1210008F1210008F1210008F1210008E8
:1000B0001D0A0008F1210008F1210008F1210008C3
:1000C000F1210008F1210008F1210008F1210008C8
:1000D000F1210008210B0008B50B0008F1210008F0
:1000E000F1210008F121000800000000F1210008C2
:1000F000F1210008F1210008F1210008F121000898
:10010000F1210008F1210008F1210008F121000887
:10011000F1210008F1210008F1210008F121000877
:10012000F1210008F1210008F1210008F121000867
:1001300053B94AB9002908BF00281CBF4FF0FF314E
:100140004FF0FF3000F00CB8ADF1080C6DE904CEB3
:1001500002F050F8DDF804E0DDE9022304B0704756
:10016000704700BF0348044B834202D0034B03B1E6
:1001700018477047180000201800002000000000F9
:100180000548064B1B1AD90F01EBA301491002D0F9
:10019000034B03B1184770471800002018000020D7
:1001A0000000000010B5064C237843B9FFF7DAFFD2
:1001B000044B13B10448AFF300800123237010BD3A
:1001C0001800002000000000E824000808B5054BD6
:1001D0001BB105490548AFF30080BDE80840FFF7B3
:1001E000CFBF00BF000000001C000020E824000872
:1001F00070B50F4B0F4DAB42A3EB050607D00024A3
:10020000B61055F8043B01349847A642F9D802F0DD
:100210006BF9094D094B5E1BAB424FEAA60606D0AF
:10022000002455F8043B01349847A642F9D870BD24
:10023000C82C0008C82C0008C82C0008D02C0008C6
:10024000704700BF704700BF024B13B1024800F077
:1002500005B870470000000069020008002301464D
:100260001A46184600F014B838B5074D074C2C1B39
:10027000A41005D0013C55F8043D9847002CF9D155
:10028000BDE8384002F036B9D42C0008D02C000864
:100290002DE9F8431B4D0646286898460F469146BF
:1002A000FFF7CEFF184B1C681CB3286865681F2D2C
:1002B00022DC4EB96B1C0235636044F82570FFF7F1
:1002C000C1FF0020BDE8F883012304EB8501C1F8DC
:1002D0008890D4F88821AB401A43022EC4F88821B4
:1002E000C1F80881E6D1D4F88C211A43C4F88C21D6
:1002F000E0E7064C1C60D8E7FFF7A4FF4FF0FF30A3
:10030000E0E700BF00000020380000203C00002093
:100310004FF08042064B1968536A126998B2D207AF
:1003200002D51B0458BF013140EA0140090C704757
:10033000203D0020034A116813685B1A8342FBD3F7
:10034000704700BF343D0020144B9A6942F004020C
:100350009A61DA6942F40032DA61114AD2F800385F
:1003600023F47F4343F49243C2F800384FF0402215
:100370000023C2F80C340B4B1B6803EB5003B3FB98
:10038000F0F042F22C03C2F80804C2F80C344FF02B
:10039000E0234022C3F80421704700BF0010024050
:1003A00000000140100000204FF04023D3F800244B
:1003B0001206FBD5C3F8040470470000034BD3F8C2
:1003C00000281206FBD5C3F804087047003001402E
:1003D00008B5411E11F8010F00B908BDFFF7EEFF87
:1003E000F8E77FB501AB00211E460A25B0FBF5F406
:1003F00005FB1402303203F8012B0246092A20467D
:1004000001F10101F2D80139705CFFF7D7FF002933
:10041000F9D104B070BD2DE9F04186B001AF0646B8
:100420000D460024B846304629460A220023FFF72D
:100430007FFE303207F8012B32462B460A2A73F131
:10044000000306460D4604F10104ECD2013C18F805
:100450000400FFF7B3FF002CF8D106B0BDE8F0812F
:1004600038B51C210446064D24FA01F303F00F03AE
:10047000E85C0439FFF7A2FF0B1DF5D138BD00BFC2
:100480002E2B0008C11710B5044605D52D20FFF707
:1004900095FF644261EB41012046BDE81040FFF743
:1004A000BABF0068704708B50246FFF7FAFF034677
:1004B000101DFFF7F6FF0146184608BDF8B52B4B97
:1004C0002B4C9A69012042F009029A61DA690925E8
:1004D00042F40012DA61D4F8003C402623F07F4356
:1004E00043F0AA43C4F8003CC023C4F8103CFFF713
:1004F00021FF0120C4F8146CFFF71CFFC4F8106C36
:10050000FFF718FF013DF4D18027C4F8147CFFF7F2
:1005100011FFC4F8106CFFF70DFFC4F8107CFFF753
:1005200009FF4FF40042D4F8003C23F07F4343F02E
:100530005D43C4F8003C0F4B0F4CC3F800240F4A36
:10054000C3F8005411680E4DB1FBF4F1C3F8041464
:100550001168B1FBF5F1C3F81C141268B2FBF4F298
:100560000244C3F82024C3F80004F8BD0010024080
:10057000000001400050004040420F0010000020E9
:10058000400D03000B4BD3F8002442F40072C3F873
:100590000024D3F8142422F47062C3F81424D3F88E
:1005A000002442F40042C3F800240022C3F80024CF
:1005B000FFF784BF00500040014670B50A4D0B4C58
:1005C0002E68D4F814240A4001D0012008E0D4F8A1
:1005D000140410F4706004D12B689B1B042BF0D919
:1005E00070BD1046FCE700BF343D002000500040C5
:1005F000074A08491068D1F818349B0701D4012034
:10060000704713681B1A042BF5D90020704700BFF0
:10061000343D002000500040054B82B0D3F8142434
:100620000192D3F818340193019B02B0704700BFC8
:100630000050004070B50B4D0646D5F8003401203F
:1006400043F48073C5F800340C46FFF7B5FF40B1A2
:1006500044EA4604C5F810440220BDE87040FFF7A4
:10066000ABBF70BD0050004070B504460E46154645
:10067000FFF7BEFFF0B100212046FFF7DBFFC8B156
:100680008020FFF7C9FFFFF797FF98B10B4C802040
:10069000C4F81064FFF790FF60B10420C4F8105450
:1006A000FFF78AFF30B1D4F8003443F40073C4F884
:1006B000003470BDFFF766FF0020FAE700500040ED
:1006C0002DE9F0413F4C1F46D4F80034064643F470
:1006D0008063C4F8003488461546FFF789FF002878
:1006E0006CD000213046FFF7A5FF002866D080209F
:1006F000FFF792FFFFF760FF00285FD00420C4F8E7
:100700001084FFF759FF002858D0D4F8003443F480
:100710000073C4F80034FFF76BFF00284ED030465A
:100720000121FFF787FF0646002847D0012F19D186
:1007300072B6D4F8003423F48063C4F80034FFF7B1
:100740006BFFD4F8003443F40073C4F8003462B68D
:100750004020FFF731FF88B3D4F810342B703046B7
:10076000BDE8F081FFF758FF05F10B074020FFF7C8
:1007700023FF18B3D4F8103405F8013BAF42F5D18C
:100780000420FFF719FFC8B1D4F80034402023F447
:100790008063C4F80034D4F810343B70D4F80034CB
:1007A00043F40073C4F80034D4F810347B70FFF7BE
:1007B00003FF18B1D4F81034BB70D0E7FFF7E2FEA6
:1007C0000026CCE7005000400A46014602480123BB
:1007D0000078FFF775BF00BF0400002010B5044685
:1007E000FFF706FF20B9FFF7CDFE0024204610BD1D
:1007F00020460021FFF71EFF04460028F3D0FFF734
:100800000BFF054A0120D2F8003443F40073C2F80C
:100810000034FFF78FFDE9E70050004013B50023D7
:1008200068203E4C8DF807302070FFF7D7FF20B1CD
:100830003B4A136843F00103136075200DF1070173
:10084000FFF7C2FF28B19DF80730364A682B1360C6
:1008500018D069202070FFF7C1FF20B1304A13681B
:1008600043F00203136075200DF10701FFF7ACFFA1
:1008700010B9002002B010BD9DF80730294A682B3E
:100880001360F6D1247880226B212046FFF7ECFE1E
:100890000028EED06420FFF74DFD01226B21204699
:1008A000FFF7E2FE18B9002000F00100E2E70022A5
:1008B0006C212046FFF7D8FE0028F4D000226A21E0
:1008C0002046FFF7D1FE0028EDD003221A21204652
:1008D000FFF7CAFE0028E6D0092219212046FFF7BB
:1008E000C3FE0028DFD000221B212046FFF7BCFEFC
:1008F0000028D8D000221C212046FFF7B5FE002892
:10090000D1D0202237212046FFF7AEFE0028CAD0E2
:10091000012238212046FFF7A7FEC5E7040000208A
:100920006C1200206812002006232DE9F3410024F8
:100930008DF80500B52016468DF80430ADF8062078
:10094000FFF732FD6220FFF72FFD254627460DF108
:10095000040818F8010B01370544EDB2FFF724FD38
:100960002C44042FE4B2F4D10027B7420ED328461A
:10097000FFF71AFD2046FFF717FD4FF04022D2F88F
:1009800000345B06FBD502B0BDE8F081C85DFFF71F
:100990000BFD0544EDB22C44E4B20137E5E74FF41A
:1009A0008073F0B5B1B000930C23042203FB010661
:1009B0006946047A151D2B19C02B19D803688F18A6
:1009C000C0326A4402F8C03C1A0A7A701A0C1B0E34
:1009D000FB700023BA70ADB2EA189C4292B209D8FB
:1009E0000C302C44B042A2B2E3D18A20FFF79CFF26
:1009F00031B0F0BD47684FEAC30CC0326A4427FAF1
:100A00000CF702F8C07C0133E6E77047024A13682E
:100A100001331360704700BF343D002070B54FF0C4
:100A2000804440F2016122692E481140C9430368A5
:100A30002161510541BF2C4C21680131216096078D
:100A400027D54FF080414C6B0969A6B21143CD0701
:100A500044D5210442D4591C46EA01440D0C2349D3
:100A6000C1E90045224C216801312160214C2168F7
:100A7000013121602049214C098889B22180204917
:100A80000C6820490C602049204C0D68256000242A
:100A90000C6056071DD54FF080418C6B0969A6B2DA
:100AA0001143CD071CD521041AD4591C46EA014430
:100AB0000D0C1749C1E90045164C216819B1164DB6
:100AC00029680131296001212160144C216801311C
:100AD0002160D20744BF0133036070BD1946BBE7F4
:100AE0001946E3E7203D00205C120020183D00205D
:100AF000103D002054120020003D00200C3D00203D
:100B0000FC3C0020083D0020F83C0020043D002073
:100B1000283D0020303D002060120020641200209B
:100B20001C4B10B5D3F8002812F02F0F22D0140759
:100B300018BF1949D3F804081EBF0B6801330B60B6
:100B4000910617D51549164C0B6801330B601549F2
:100B50000B8824689BB24CB1134C01332488C3F337
:100B60000A03A4B29C4201D0520704D00F4A136872
:100B70000133136010BD0A880D4C92B2C0B2A0546C
:100B80004FF040220B80D2F80C3443F08003C2F8BF
:100B90000C34EFE700300140C8200020D4200020B2
:100BA000D8200020DE200020DC200020CC200020E7
:100BB000E02000204FF04023D3F8003470B513F04C
:100BC000280F19D0180748BF254A264E42BF136880
:100BD000013313604FF04023234AD3F804343488A0
:100BE0001288A4B2651CC5F3090592B2AA4226D1A7
:100BF0001B4A1368013313604FF04023D3F80C24D1
:100C000011061BD5D3F80024120617D5174A184928
:100C10001088098880B289B288421AD01188154894
:100C200089B2415CC9B2C3F8041413880133C3F319
:100C30000A031380104A13680133136070BD0F4A12
:100C4000DBB21355FFF764FB0D4B43F824003580EE
:100C5000D2E7D3F80C2422F08002C3F80C24EDE78D
:100C600050120020E2280020E0280020DC20002094
:100C7000DE200020E0200020D0200020E4380020EA
:100C8000E428002000232DE9F04F8A4C9DB08DF818
:100C90004F30236843F480332360874B22689103ED
:100CA00000F1CE80002B40F0C980844B844A1B6841
:100CB000002613604FF47A72B3FBF2F34FF0E02298
:100CC000013B5361072396611361A3697D4943F09A
:100CD0001003A3614B687C4823F4700343F40013B2
:100CE0004B604FF400530B61A369A1F5805143F4AD
:100CF000804343F00503A361D1F80438734D23F416
:100D00007F6343F49263C1F804384FF4E121704BE0
:100D1000704F1B6803F56133B3FBF1F36E49C1F803
:100D2000083842F22C03C1F80C382023C2F80431F1
:100D3000FFF74EFB55F8040BFFF706FB1420FFF7F7
:100D4000F9FA07216548FFF72AFE2420FFF72CFB5C
:100D50000021DFF88C8118F8010B002840F0A680F4
:100D60002A20FFF721FB0B09F85C01F00F01FFF7C8
:100D70001BFB785CFFF718FB0D20FFF715FB0A2023
:100D8000FFF712FB4FF04022D2F800345B06FBD590
:100D900064200136FFF7CEFA032ECBD14FF4E130B9
:100DA000FFF7D2FA72B600254E4F4F4B3D801D80A3
:100DB00062B612214D48FFF7F2FD1420FFF7BAFA90
:100DC00001214B48FFF7EBFD1420FFF7B3FA08228F
:100DD00048490120FFF7A8FD1420FFF7ABFA0822CD
:100DE00001204549FFF7A0FD01214448FFF7D7FD49
:100DF0006420FFF79FFAFFF761FBC820FFF79AFA1C
:100E0000FFF70CFD002840F08B80E1223C4B3D4871
:100E10001A60FFF7DDFA304AD2F800385C06FBD5DD
:100E200096204FF4005238490B68B3FBF0F313F0EF
:100E3000010F244B14BF5A611A61F5E7013B2DE7FE
:100E4000002B3FF432AF1222304B1A60636823F458
:100E5000741323F4E06343F4E81343F480636360A2
:100E6000236843F080732360134B2268920104D4FB
:100E7000002B3FF41AAF013BF7E7002B3FF415AF0F
:100E8000636823F0030343F002036360636803F0C5
:100E90000C03082BFAD11E4B084A1E4913601E4A48
:100EA00011600B4A13601D4A1360FEE64140FFF7D4
:100EB0007BFA50E70010024040420F00140000206F
:100EC000801200200010014000250008B42C00080A
:100ED0000C0000202E2B000800300140542C00088C
:100EE000342C0008E2280020E02800205C2B0008B9
:100EF000402B0008542B00084C2B0008A82C00089D
:100F0000841200200C250008343D002000200240FF
:100F100000A24A0400512502100000200800002011
:100F2000A369974A43F00403A361E369954943F039
:100F30000103E361D2F80038012423F0FF0343F0FA
:100F40008803C2F800384FF08043C2F814688E4A14
:100F50001D601268B2FBF1F2013A9A624FF6FF721D
:100F6000DA6240F201125D629A6111221A6207226E
:100F70005C614FF080511D61DA604FF0E022C2F8F1
:100F800000111C6072B63B88804A9BB2138062B627
:100F90003A200DF14F01FFF717FC72B67C4B1D6034
:100FA00062B61420FFF7C6F97A48FFF711FA7A48BB
:100FB000FFF70EFA7948FFF70BFA7948FFF708FABE
:100FC0007848FFF705FA7848FFF702FA7748FFF705
:100FD000FFF97748FFF7FCF97648FFF7F9F976480B
:100FE000FFF7F6F97548FFF7F3F97548FFF7F0F9E1
:100FF0007448FFF7EDF97448FFF7EAF9734BAB4615
:101000001B78AA46682B14BF39203820FFF7D6F981
:101010006F48FFF7DDF96F48FFF7DAF96E48FFF721
:10102000D7F96E48FFF7D4F96D48FFF7D1F96D484D
:10103000FFF7CEF96C48FFF7CBF96C48FFF7C8F91A
:101040006B4BCDE90F551C602C46CDE90D55CDE914
:101050000055099506950C95089507954B49654AE5
:101060000B8812889BB292B2934200F0CB82624A04
:10107000D55C624AEDB252F823600133C3F3090331
:101080000B8072B6FFF744F962B65D4B1B78072BF5
:1010900000F2C880DFE803F0040A151D2A37516802
:1010A000B52DDBD10123564A1370D7E7622D06D048
:1010B000A5F1B50045424541514B1D70CEE70225D3
:1010C000FAE7504B1D70504B1D70504B1D700323A1
:1010D000E9E74D4A4E4B1D7013782B44DBB2137079
:1010E0004A4A11780B4413700423DCE7464A494B03
:1010F0001D8013782B44DBB21370444A11780B44E3
:1011000013700523CFE7434B3F491A8842EA052273
:101110001A800B78B2F5805F2B44DBB20B703B4931
:10112000087803440B704FF000033B490B80BAD89A
:101130009A420CBF07230623B5E737490B885A1C90
:1011400092B20A803549CD542F490B782B44DBB23B
:101150000B702E49087803440B702E4B1B8893426A
:101160007FF47CAF07239EE7274B1B78AB4217BF6A
:101170002B4A0823136801331CBF1360002392E736
:101180000000014040420F0008000020E02800203D
:10119000303D002041250008682500088B25000807
:1011A000AE250008E12500080326000832260008C5
:1011B000882600089F260008B3260008D3260008CA
:1011C000EA2600080927000831270008040000204B
:1011D0009C26000847270008B12700086D28000852
:1011E000C228000813290008862900089C29000845
:1011F00084120020E2280020E4380020E4280020A7
:10120000D4110020D3110020D2110020D1110020D0
:10121000D0110020CE110020CC110020CC010020E4
:1012200048120020A04B1B78AB4240F0DC819F4B62
:10123000DFF87CC21D789F4BDCF800701A789E4B5B
:101240000137052D1B88CCF800700FD1022B05D17A
:10125000012A07D1994A1368013313600022984B81
:101260001A70FBE6002AF9D1964AF4E7861B801B28
:1012700061F10001022D0A900B9121D1322A40F038
:10128000CF80082BEAD1904A1368013313608F4B4B
:101290001A688F4B1A608F4A5378D90701D58E4A46
:1012A000D9E790888D490880D08812788C49012A26
:1012B0000880D3D903F00603042BCFD1894ACAE7AB
:1012C000012D40F06B81072A5DD15B2BC6D9DDE98A
:1012D0000A56804B84491846C1E90056FFF7E1F8E9
:1012E00082495A7D0860187D814908608149987D4E
:1012F0000A60814992090860804903F118000A6078
:10130000D97D7F4A1160FFF7CCF87E4A106003F167
:101310001C00FFF7C6F87C4A106003F12400FFF7B9
:10132000C0F87A4A106003F12800FFF7BAF8784A4B
:10133000106003F12C00FFF7B4F8764A106003F157
:101340003000FFF7AEF8744A106003F13400FFF785
:10135000A8F8724A106003F13800FFF7A2F8704A4B
:10136000106003F13C00FFF79CF86E4A106003F137
:101370004400FFF796F86C4A1060B3F84C206B4BB2
:101380001A606B4A67E7352A7FF468AF072B7FF650
:1013900065AF0C224F49083BB3FBF2F34A790026B4
:1013A000402A28BF4022DBB2934228BF1346614A3D
:1013B000F0B2834201F10C0502F1080212D845484F
:1013C000FFF76FF85C4A106072B65C4A11885C4A9D
:1013D00011805C4A11685C4A117062B65B4A1370F6
:1013E0005B4A38E701F11000FFF75BF815F8047C61
:1013F000898902F8087C15F8037CC0F3C00002F864
:10140000077C15F8027C22F8041C02F8067C15F80B
:10141000017C294602F8057C02F8020C0136C7E778
:10142000152A7FF41BAF0F2B7FF618AF294A517B8B
:1014300001297FF413AFD57A103B5A09C3F34F1338
:10144000AB4238BFD5B2602D88BF424A214F88BF1A
:101450001368384683BF0133136060262E46FFF7BA
:1014600022F83D4B3A89C3E900013C4B07F11000DB
:101470001A80BA7A3A4B1A703A7B3A4B1A703A4B46
:10148000DDE90A12C3E900120023384AD9B2B14299
:1014900076D3374B374A1D70374B1E7013680133B4
:1014A0001360364AD7E600BFD1110020D3110020C7
:1014B0004C120020D0110020CE1100204412002038
:1014C000D411002040120020C4200020343D002010
:1014D000B8200020CC010020BC200020B620002035
:1014E000B4200020C0200020281200202412002058
:1014F00020120020181200201412002010120020C8
:101500001C1200200C1200200812002004120020DF
:1015100000120020FC110020F8110020F41100201E
:10152000F0110020EC110020E8110020E41100204F
:101530003C120020B41E0020B01E00200C3D0020F4
:10154000AE1E0020043D0020AC1E0020AD1E002079
:10155000A81E002030120020A012002090120020AF
:101560008F1200208E12002098120020A812002056
:101570008C120020341200208D12002088120020CE
:101580000146174600F1200C51F804EB614547F87D
:1015900004EBF9D101332032203077E70D2D7FF4B1
:1015A0005DAE012A7FF45AAE102B7FF457AE0F497F
:1015B0000846FEF776FF8B898A7BC97B01F00F0115
:1015C00072B60B4D02F0010228600A480A430380FC
:1015D00007D1003B18BF0123074A136062B6074AD0
:1015E00039E60023F8E7064A35E600BFCC010020C3
:1015F000FC3C0020003D0020F83C00203812002078
:1016000048120020B04B1B68BBB9B04B1B68A3B994
:10161000BBF1040F11D8AE4D0F9A2B689B1A002B0B
:101620000BDB0121AB48FFF7BAF90BF101035FFABD
:1016300083FB2B6803F57A730F93A44B1B6813B9D4
:10164000BBF1040F02D901229F4B1A60DFF8809290
:10165000109AD9F800309B1A002B6FDB72B69E4BA4
:10166000D3F800809D4B1F689D4B1E689D4B1D68E5
:1016700062B69D48FEF7ACFED9F80000FEF7B1FE59
:101680002C20FEF79BFE904B1868FEF7AAFE2C203C
:10169000FEF794FE4046FEF7A4FE2C20FEF78EFED9
:1016A0003846FEF79EFE2C20FEF788FE3046FEF7F9
:1016B00098FE2C20FEF782FE2846FEF792FE2C2094
:1016C000FEF77CFE894B1868FEF78BFE2C20FEF798
:1016D00075FE874B1D682846FEF783FE2C20FEF71B
:1016E0006DFE844B1868FEF77CFE2C20FEF766FE2C
:1016F000814B1868FEF775FE2C20FEF75FFE7F4BCE
:101700001888FEF76EFE2C20FEF758FE7C4B1888DA
:10171000FEF767FE2C20FEF751FE002D00F0418100
:10172000784BD9F800001B68C01AFEF75AFE7648BD
:10173000FEF74EFE664B1B6864331093734F0C9A92
:101740003B68934200F0978072B6714B1D88714BD5
:10175000ADB21E6862B67048FEF73AFE2846FEF744
:1017600040FE2C20FEF72AFE6C4B1868FEF739FE6F
:101770002C20FEF723FE3046FEF733FE2C20FEF72A
:101780001DFE674BD3E90001FEF745FE2C20FEF756
:1017900015FE644B1868FEF724FE2C20FEF70EFEA3
:1017A000614B1868FEF71DFE2C20FEF707FE5F4B0D
:1017B0001868FEF716FE2C20FEF700FE5C4B18683A
:1017C000FEF70FFE2C20FEF7F9FD5A4B1868FEF7C6
:1017D00008FE2C20FEF7F2FD574B1868FEF752FE6C
:1017E0002C20FEF7EBFD554B1868FEF74BFE2C2026
:1017F000FEF7E4FD524B1868FEF744FE2C20FEF77E
:10180000DDFD504B1868FEF7ECFD2C20FEF7D6FDF1
:101810004D4B1868FEF7E5FD2C20FEF7CFFD4B4B36
:101820001868FEF72FFE2C20FEF7C8FD484B1868FD
:10183000FEF728FE2C20FEF7C1FD464B1868FEF788
:1018400021FE2C20FEF7BAFD434B1868FEF7C9FDB8
:101850002C20FEF7B3FD414B1868FEF7C2FD2C208B
:10186000FEF7ACFD3E4B1868FEF7BBFD2648FEF7C1
:10187000AFFD3B680C933B4B08991A688A4200F015
:10188000318172B61B680893374BD3E90067204B50
:10189000B3F80080354B1FFA88F81B6804931D4B82
:1018A0001A68119262B672B6314A1B6831491278D1
:1018B000D1E90001D2B2CDE9020162B6002B73D1A9
:1018C000002A00F0288157E0D820002034120020A0
:1018D000343D0020402B0008D4200020D0200020E0
:1018E000CC200020C8200020C2290008501200206F
:1018F000C4200020C0200020BC200020B6200020F2
:10190000B4200020B82000209C2600083C120020B3
:101910000C3D0020043D0020C929000824120020AD
:1019200028120020201200201C1200201812002073
:101930001412002010120020081200200C120020A7
:101940000412002000120020FC110020F8110020D9
:10195000F4110020F0110020EC110020E81100200B
:10196000E4110020103D0020183D0020083D00201B
:10197000E43C0020F03C0020029B9E42039B77EB5E
:101980000303C0F0CC80029B4FF47A72F01A039BE1
:1019900067EB03010023FEF7CBFB81460D460223D4
:1019A00006E04FF0FF30C0E64FF0000901234D463E
:1019B0006B480293FEF70CFD0898FEF712FD69488C
:1019C000FEF706FD39463046FEF725FD6648FEF770
:1019D000FFFC4046FEF705FD6448FEF7F9FC04985D
:1019E000FEF7FFFC6248FEF7F3FC1198FEF7F9FCE6
:1019F0006048FEF7EDFC029B1846FEF7F2FC5E48DD
:101A0000FEF7E6FC29464846FEF705FD5B48FEF773
:101A1000DFFC5B4B1868FEF7E4FC5A48FEF7D8FC85
:101A2000594B1868FEF7DDFC5848FEF7D1FC584BBF
:101A30001868FEF7D6FC5748FEF7CAFC564B1868E4
:101A4000FEF720FD5548FEF7C3FC554B1868FEF71E
:101A500019FD5448FEF7BCFC534B1868FEF712FD05
:101A60005248FEF7B5FC524B1868FEF70BFD514883
:101A7000FEF7AEFC504B1868FEF704FD4F48FEF72A
:101A8000A7FC4F4B1868FEF7FDFC4E48FEF7A0FC84
:101A90004D4B1868FEF7A5FC4C48FEF799FC4C4BE3
:101AA0001868FEF79EFC4B48FEF792FC4A4B1868FC
:101AB000FEF797FC4948FEF78BFC494B1868FEF788
:101AC00090FC4848FEF784FC474B1868FEF789FCF9
:101AD0004648FEF77DFC464B1868FEF782FC4548F9
:101AE000FEF776FC444B1A68002A3FF4B7AA72B698
:101AF000424AD2E9008900221A6062B63A200DF10A
:101B00004F01FEF761FE70B9394A013413680133A1
:101B10001360FFF7A3BA4FF000094D4648E74FF0B6
:101B200000094D463BE736480E233B21007814AAB6
:101B3000FEF7C6FD002867D12D4A01341368042C36
:101B400003F1010313607FF689AA2E48FEF740FCDB
:101B50001420FEF7EFFBFEF761FE0024FFF77EBACC
:101B6000CF290008DB290008E6290008F129000830
:101B7000FE2900080B2A0008182A00082A2A000853
:101B800024120020382A0008201200203E2A0008D3
:101B90001C120020472A000808120020502A0008C2
:101BA0000C120020592A000804120020632A0008A1
:101BB000F81100206F2A0008F41100207B2A000889
:101BC000F0110020872A00087C120020962A0008C5
:101BD00064120020A82A000860120020BD2A000814
:101BE0005C120020CF2A000858120020DE2A0008CC
:101BF000701200209C260008303D0020283D002067
:101C000004000020EB2A0008DDE90032134312D063
:101C1000009BB8EB0303009369EB0203019343F6C7
:101C20009923009A9A42019B73F1000321BFB14AA4
:101C3000136801331360079B01330293BDF85030E2
:101C40005BBAADF86030BDF852305BBAADF86230C7
:101C5000BDF854305BBAADF86430BDF856305BBAAD
:101C6000ADF86630BDF858305BBAADF86830BDF8F5
:101C70005A305BBAADF86A30BDF85C305BBAADF88B
:101C80006C3072B69C4BDFF874E2D3E900679C4B72
:101C90009C481A689C4BB3F800C09C4B1FFA8CFC04
:101CA0001D689B4B18CBCDE90434DEF8003011934E
:101CB000984B1C880178A4B2C9B262B6002D00F01E
:101CC000558172B69249C1E90067A3F800C00123AB
:101CD000CEF80020037062B64FF47A73B04579EB0A
:101CE0000701A2FB0332C0F0EC80B8EB060169EB00
:101CF00007006446CE184FF08C0142EB000786487F
:101D0000864AB04271EB0703C0F0D38001258448B6
:101D1000FEF75EFB0798FEF764FB2C20FEF74EFBF8
:101D20002046FEF75EFB2C203946FEF747FB304687
:101D3000FEF771FB2C20FEF741FB2846FEF751FB16
:101D40002C20FEF73BFB49464046FEF764FB00248F
:101D5000744E18AD35F9021B2C2026F81410FEF72E
:101D60002DFB002903DA2D20FEF728FB4942084607
:101D70000134FEF736FB072CECD16B48FEF728FB4D
:101D80006A4B1D680D9B9D4218BF4FF0000A002D45
:101D90004AD0674B1B78534540F214816548FEF7E3
:101DA00017FB654B654C1888FEF71BFB2C20FEF7D4
:101DB00005FB634B0AF101061868FEF712FB2C20A5
:101DC000FEF7FCFA5F4BF6B21878FEF70AFB2C2000
:101DD000FEF7F4FA14F83A00FEF703FB04EBCA042A
:101DE0002C20FEF7EBFA6078FEF7FBFA2C20FEF7CA
:101DF000E5FAA078FEF7F5FA2C20FEF7DFFA94F961
:101E00000300FEF73FFB2C20FEF7D8FAB4F90400DC
:101E1000FEF738FB2C20FEF7D1FAA079FEF7E1FAA5
:101E20004148FEF7D5FAB246474B1F680E9B9F42CA
:101E300000F0ED804548FEF7CBFA454B1888FEF7D9
:101E4000D0FA2C20FEF7BAFA424BD3E90040FEF755
:101E500007FB2046FEF704FB2C20FEF7AFFA3E4BB3
:101E600093F90000FEF70EFB2C20FEF7A7FA3B4B80
:101E70001878FEF7B6FA2C20FEF7A0FA384B18783F
:101E8000FEF7AFFA2C20FEF799FA364B1878FEF7DA
:101E9000A8FA2C20FEF792FA334BD3E90001FEF7A3
:101EA000BAFA2148FEF794FA002306930223099315
:101EB00029E1B31804F101041E4667F18C07A4B2AE
:101EC0001FE76446B6EB0800134967EB0905834238
:101ED00072EB050603D31E1A62EB050716E70138FD
:101EE00045F1FF35013CC01A65EB02050B468C221B
:101EF000A4B2ECE758120020183D0020E83C002076
:101F0000083D0020E43C00200C3D0020043D002062
:101F1000F03C0020EC3C0020FF9FE3D000601C2F31
:101F2000002B0008D61100209C260008A81E0020C7
:101F3000AD1E0020052B0008AE1E0020B41E0020A0
:101F4000B01E0020AC1E002088120020132B0008B9
:101F500090120020A01200208F1200208E1200206C
:101F60008D1200208C1200209812002031B34FF403
:101F70007A77119BA3FB0767049B9845059B79EB38
:101F80000303FFF4C4AE049B059AB8EB030369EBAB
:101F900002029B191E464FF08C0147EB0207714865
:101FA000714AB04271EB0703BFF4B1AEB31804F14C
:101FB00001041E4667F18C07A4B2F2E72E462F46B5
:101FC0002C46A4E67FF430AF6848FEF701FA684B70
:101FD0001888FEF706FA2C20FEF7F0F9654B186812
:101FE000FEF7FFF92C20FEF7E9F9634B1878FEF7AE
:101FF000F8F92C20FEF7E2F95046FEF7F2F95F48B7
:10200000FEF7E6F90AF101035FFA83FA0CE7099B90
:10201000002B00F0A5805A4B1C78069B9C4240F296
:1020200096800133DBB20493564C069B564804EB72
:102030004314FEF7CDF9207DFEF7D3F92C20FEF7EF
:10204000BDF9607DFEF7CDF92C20FEF7B7F9A07D34
:10205000FEF7C7F92C20FEF7B1F9E07DFEF7C1F9D4
:102060002C20FEF7ABF92046FEF71DFA064608467F
:10207000FEF7F6F93046FEF7F3F92C20FEF79EF94D
:1020800004F10800FEF70FFA06460846FEF7E8F9E5
:102090003046FEF7E5F92C20FEF790F904F1100028
:1020A000FEF7FFF9FEF7DCF92C20FEF787F9208B0D
:1020B000FEF797F92C20FEF781F9A07EFEF791F943
:1020C0002C20FEF77BF9E07E00F00F00FEF789F987
:1020D0002C20FEF773F9207F00F00F00FEF781F946
:1020E0002C20FEF76BF9607F00F00F00FEF779F906
:1020F0002C20FEF763F9A07FFEF773F91F48FEF767
:1021000067F9049B0693029A204BDDE900011A60EF
:10211000009A1F4B1A604FF47A720023FEF708F8FA
:1021200064221C4B02991860029BB3FBF2F302FB82
:102130001313032B4FF40053174A94BF53611361D9
:10214000029BCDE90D57CDE90089079305E51348BA
:10215000FEF73EF92046FEF744F90848FEF738F945
:102160000023A4E6FF9FE3D000601C2F0A2B000889
:10217000AE1E0020B01E0020AC1E00209C260008D1
:102180008D120020A8120020192B00087C120020BC
:10219000741200207812002000100140242B000847
:1021A0000D488546FEF731FC0C480D490D4A0023C9
:1021B00002E0D458C4500433C4188C42F9D30A4AFC
:1021C0000A4C002301E013600432A242FBD3FEF765
:1021D0000FF8FEF757FDFEE700500020000000203A
:1021E00018000020D42C000818000020383D0020E2
:1021F000FEE700002DE9F047089D0F4604468E4695
:10220000002B48D18A42164661D9B2FA82F24AB10D
:10221000C2F1200301FA02FE20FA03F3964043EADA
:102220000E0E94404FEA164CBEFBFCF1B7B20CFB0D
:1022300011EE01FB07F0230C43EA0E43984209D943
:10224000F31801F1FF3E80F0ED80984240F2EA8001
:10225000023933441B1AB3FBFCF00CFB103300FBB8
:1022600007F7A4B244EA0344A74209D9341900F19C
:10227000FF3380F0D980A74240F2D6803444023840
:1022800040EA01400021E41B1DB10023D440C5E910
:102290000043BDE8F0878B4206D90DB1C5E90001C6
:1022A00000210846BDE8F087B3FA83F1002947D141
:1022B000BB4202D3824200F20481841A67EB03021C
:1022C00001209646002DE4D0C5E9004EE1E7002A42
:1022D00000F09080B2FA82F2002A40F0A780881BBA
:1022E0000121370C1FFA86FEB0FBF7FC07FB1C0030
:1022F000230C43EA00430EFB0CF0984207D9F31875
:102300000CF1FF3802D2984200F2E080C4461B1A5A
:10231000B3FBF7F007FB10330EFB00FEA4B244EA58
:102320000344A64507D9341900F1FF3302D2A6456C
:1023300000F2C9801846A4EB0E0440EA0C40A3E763
:10234000C1F120068B4022FA06FC4CEA030C27FA66
:1023500006FA4FEA1C49BAFBF9F88F4020FA06F357
:1023600009FB18AA1FFA8CFE3B4300FA01F708FB91
:102370000EF01C0C44EA0A44A04202FA01F20BD906
:102380001CEB040408F1FF3A80F09980A04240F26F
:102390009680A8F102086444241A98B2B4FBF9F3B9
:1023A00009FB134403FB0EFE40EA0444A64508D98A
:1023B0001CEB040403F1FF307FD2A6457DD9023B1C
:1023C000644443EA0840A4EB0E04A0FB028E74456B
:1023D0004346F14661D35ED055B1FA1A64EB090465
:1023E00004FA06F622FA01F31E43CC40C5E9006464
:1023F00000214EE743084FEA510C43EAC1710A0C31
:1024000042EA0C428BB2C407B2FBF6F143EA024344
:10241000BCFBF6FCB646304637461F22181A41EA86
:102420000C4161E7714615E7184629E7C2F1200320
:1024300021FA03F0964024FA03F397403B43370C0C
:10244000B0FBF7F807FB18001FFA86FE190C41EAEB
:10245000004108FB0EF0884204FA02F43AD97118E0
:1024600008F1FF3C01D288421ED8091AB1FBF7F8E7
:1024700008FB0EF007FB18119BB243EA01438342AD
:102480002FD2F31808F1FF31C8D28342C6D2A8F187
:1024900002013344C2E747459ED2B8EB02036EEB1C
:1024A0000C0E0138F14697E7301A0144A8F1020CEE
:1024B000B1FBF7F808FB0EF0DCE7034681E7D046F6
:1024C0006AE70846FEE63444023834E7ACF1020C11
:1024D00033441CE7091AC446B1FBF7F808FB0EF0B9
:1024E000C8E741469AE700BFF8B500BFF8BC08BC92
:1024F0009E467047F8B500BFF8BC08BC9E467047C2
:102500002320626F6F74696E670D0A0023204552A5
:10251000524F523A204D505536303530206E6F7440
:1025200020666F756E643B20636865636B20332E95
:1025300033562F474E442F5042362F5042370D0A04
:102540000023206D7075363035305F6639705F6EF0
:10255000617669676174696F6E5F70726F746F63C3
:102560006F6C5F76330D0A00232074696D65723DD0
:1025700074696D325F316D687A5F34386269745F97
:10258000657874656E6465640D0A0023207070734D
:102590003D6639705F74705F7061305F74696D3271
:1025A0005F6368315F726973696E670D0A0023208B
:1025B000747269676765723D6D7075363035305F6E
:1025C000646174615F72656164795F7061315F74C9
:1025D000696D325F6368325F726973696E670D0A95
:1025E0000023206C6F676765725F756172743D755B
:1025F00073617274315F7061395F343630383030F6
:102600000D0A0023206639705F756172743D757321
:10261000617274325F7061325F7061335F31313586
:102620003230305F7562785F7274636D33696E0D3E
:102630000A0023206639705F6F75747075743D6E83
:1026400061765F7076745F31687A5F6E61765F7312
:1026500061745F31687A5F72786D5F726177785FFD
:1026600031687A5F72786D5F73667262785F616CF1
:102670006C5F74696D5F74705F31687A5F677073E7
:102680005F677269640D0A00232073616D706C6569
:102690005F726174655F687A3D3130300D0A0023E6
:1026A00020616363656C5F72616E67655F673D3271
:1026B0000D0A002320616363656C5F7363616C6561
:1026C0005F6C73625F7065725F673D3136333834BB
:1026D0000D0A0023206779726F5F72616E67655F14
:1026E0006470733D3235300D0A0023206779726FB4
:1026F0005F7363616C655F6C73625F7065725F646A
:1027000070733D3133310D0A00232074656D70659F
:102710007261747572655F646567433D74656D7061
:102720005F7261772F3334302B33362E35330D0AF9
:102730000023206D70755F6932635F616464726548
:1027400073733D307836002320494D552C73616DED
:10275000706C652C6770735F7765656B2C67707341
:102760005F746F775F75732C74696D655F76616CEC
:1027700069642C74696D65725F75732C61785F7222
:1027800061772C61795F7261772C617A5F72617712
:102790002C74656D705F7261772C67785F726177FA
:1027A0002C67795F7261772C677A5F7261770D0AA7
:1027B000002320474E53532C6770735F7765656B1A
:1027C0002C6770735F746F775F6D732C74696D65C0
:1027D0005F76616C69642C72785F74696D65725F95
:1027E00075732C6669782C6E756D5F73762C666CCC
:1027F0006167732C666C616773322C636172725F00
:10280000736F6C6E2C6C61745F65372C6C6F6E5FD0
:1028100065372C686D736C5F6D6D2C685F616363E9
:102820005F6D6D2C765F6163635F6D6D2C76656C9B
:102830005F6E5F6D6D732C76656C5F655F6D6D733C
:102840002C76656C5F645F6D6D732C675F7370656C
:1028500065645F6D6D732C735F6163635F6D6D7332
:102860002C70646F705F783130300D0A0023205374
:1028700041542C6770735F7765656B2C6770735F6D
:10288000746F775F6D732C74696D655F76616C69C9
:10289000642C676E73735F69642C73765F69642C54
:1028A000636E6F5F6462687A2C656C65765F6465E1
:1028B000672C617A696D5F6465672C757365640D5B
:1028C0000A002320524157582C6770735F77656563
:1028D0006B2C7263765F746F775F663634686578E9
:1028E0002C6C6561705F732C7265635F73746174C7
:1028F0002C6E756D5F6D6561732C746F74616C5FA8
:102900006D6561732C72785F74696D65725F757344
:102910000D0A002320524157585F4D4541532C6703
:102920006E73735F69642C73765F69642C73696777
:102930005F69642C667265715F69642C70725F6692
:1029400036346865782C63705F6636346865782C39
:10295000646F5F6633326865782C6C6F636B5F6D94
:10296000732C636E6F2C70725F7374642C63705F72
:102970007374642C646F5F7374642C74726B5F7314
:102980007461740D0A002320524157585F454E442C
:102990002C6E756D5F6D6561730D0A002320726189
:1029A00077785F666C6F61745F6865783D696565AF
:1029B000653735345F626974735F65786163740D80
:1029C0000A00235254434D2C00474E53532C0023EE
:1029D0002073796E632C7070733D002C74696D6583
:1029E000725F75733D002C6770735F7765656B3D33
:1029F000002C6770735F746F775F6D733D002C748C
:102A0000696D655F76616C69643D002C74696D6504
:102A10005F73746174653D002C686F6C646F7665DC
:102A2000725F6167655F6D733D002C7076745F69DE
:102A3000746F775F6D733D002C6669783D002C6E76
:102A4000756D5F73763D002C6C61745F65373D007A
:102A50002C6C6F6E5F65373D002C686D736C5F6D1D
:102A60006D3D002C76656C5F6E5F6D6D733D002C67
:102A700076656C5F655F6D6D733D002C76656C5F90
:102A8000645F6D6D733D002C73616D706C655F6389
:102A90006F756E743D002C696E746572727570741A
:102AA0005F636F756E743D002C696E74657272752C
:102AB00070745F6F76657272756E733D002C636320
:102AC000325F6F766572636170747572653D002C5C
:102AD00064745F6761705F636F756E743D002C692D
:102AE00032635F6572726F72733D002320455252EC
:102AF0004F523A204932432072657472790D0A00B0
:102B0000494D552C005341542C005341545F454EC0
:102B1000442C00524157582C00524157585F4D45A4
:102B200041532C00524157585F454E442C003031E0
:102B30003233343536373839414243444546000054
:102B4000A50291200A00000001000000021300010C
:102B5000000000000213000000000000010021300E
:102B600064000000020000000200213001000000AB
:102B7000020000000300212001000000010000000D
:102B8000070091200A0000000100000016009120BB
:102B90000A000000010000007E01912001000000F9
:102BA00001000000230005200000000001000000DB
:102BB0003000052001000000010000000200054077
:102BC00040420F00040000000300054040420F0097
:102BD0000400000004000540A0860100040000007D
:102BE00005000540A0860100040000000700051054
:102BF00001000000010000000800051001000000B5
:102C000001000000090005100100000001000000A3
:102C10000A00051001000000010000000B00051073
:102C200001000000010000000C0005200100000070
:102C300001000000505542582C34312C312C3030DA
:102C400030312C303030312C3131353230302C3085
:102C5000000000000100524000C20100040000001A
:102C60000100731001000000010000000200731059
:102C700000000000010000000400731001000000CB
:102C800001000000010074100100000001000000BC
:102C90000200741000000000010000000400741025
:102CA0000000000001000000690291200100000006
:102CB00001000000000807000096000000C20100AB
:082CC00034F5FF7F0100000064
:082CC80049020008CD010008DB
:042CD000A501000852
:102CD400340000206800000000127A0000127A001C
:082CE40000127A0000127A00D0
:04000005080021A12D
:00000001FF
