:020000040800F2
:1000000000500020F91F000849200008492000087E
:10001000492000084920000849200008000000008D
:10002000000000000000000000000000492000085F
:100030004920000800000000492000080D0A0008BF
:1000400049200008492000084920000849200008EC
:1000500049200008492000084920000849200008DC
:1000600049200008492000084920000849200008CC
:1000700049200008492000084920000849200008BC
:1000800049200008492000084920000849200008AC
:10009000492000084920000849200008492000089C
:1000A000492000084920000849200008492000088C
:1000B0001D0A0008492000084920000849200008BE
:1000C000492000084920000849200008492000086C
:1000D00049200008090B00089D0B00084920000872
:1000E00049200008492000080000000049200008BD
:1000F000492000084920000849200008492000083C
:10010000492000084920000849200008492000082B
:10011000492000084920000849200008492000081B
:10012000492000084920000849200008492000080B
:1001300053B94AB9002908BF00281CBF4FF0FF314E
:100140004FF0FF3000F00CB8ADF1080C6DE904CEB3
:1001500001F07CFFDDF804E0DDE9022304B0704724
:10016000704700BF0348044B834202D0034B03B1E6
:1001700018477047180000201800002000000000F9
:100180000548064B1B1AD90F01EBA301491002D0F9
:10019000034B03B1184770471800002018000020D7
:1001A0000000000010B5064C237843B9FFF7DAFFD2
:1001B000044B13B10448AFF300800123237010BD3A
:1001C00018000020000000004023000808B5054B7F
:1001D0001BB105490548AFF30080BDE80840FFF7B3
:1001E000CFBF00BF000000001C000020402300081B
:1001F00070B50F4B0F4DAB42A3EB050607D00024A3
:10020000B61055F8043B01349847A642F9D802F0DD
:1002100097F8094D094B5E1BAB424FEAA60606D084
:10022000002455F8043B01349847A642F9D870BD24
:100230009C2A00089C2A00089C2A0008A42A00087E
:10024000704700BF704700BF024B13B1024800F077
:1002500005B870470000000069020008002301464D
:100260001A46184600F014B838B5074D074C2C1B39
:10027000A41005D0013C55F8043D9847002CF9D155
:10028000BDE8384002F062B8A82A0008A42A000895
:100290002DE9F8431B4D0646286898460F469146BF
:1002A000FFF7CEFF184B1C681CB3286865681F2D2C
:1002B00022DC4EB96B1C0235636044F82570FFF7F1
:1002C000C1FF0020BDE8F883012304EB8501C1F8DC
:1002D0008890D4F88821AB401A43022EC4F88821B4
:1002E000C1F80881E6D1D4F88C211A43C4F88C21D6
:1002F000E0E7064C1C60D8E7FFF7A4FF4FF0FF30A3
:10030000E0E700BF00000020380000203C00002093
:100310004FF08042064B1968536A126998B2D207AF
:1003200002D51B0458BF013140EA0140090C704757
:10033000003D0020034A116813685B1A8342FBD317
:10034000704700BF143D0020144B9A6942F004022C
:100350009A61DA6942F40032DA61114AD2F800385F
:1003600023F47F4343F49243C2F800384FF0402215
:100370000023C2F80C340B4B1B6803EB5003B3FB98
:10038000F0F042F22C03C2F80804C2F80C344FF02B
:10039000E0234022C3F80421704700BF0010024050
:1003A00000000140100000204FF04023D3F800244B
:1003B0001206FBD5C3F8040470470000034BD3F8C2
:1003C00000281206FBD5C3F804087047003001402E
:1003D00008B5411E11F8010F00B908BDFFF7EEFF87
:1003E000F8E77FB501AB00211E460A25B0FBF5F406
:1003F00005FB1402303203F8012B0246092A20467D
:1004000001F10101F2D80139705CFFF7D7FF002933
:10041000F9D104B070BD2DE9F04186B001AF0646B8
:100420000D460024B846304629460A220023FFF72D
:100430007FFE303207F8012B32462B460A2A73F131
:10044000000306460D4604F10104ECD2013C18F805
:100450000400FFF7B3FF002CF8D106B0BDE8F0812F
:1004600038B51C210446064D24FA01F303F00F03AE
:10047000E85C0439FFF7A2FF0B1DF5D138BD00BFC2
:1004800003290008C11710B5044605D52D20FFF734
:1004900095FF644261EB41012046BDE81040FFF743
:1004A000BABF0068704708B50246FFF7FAFF034677
:1004B000101DFFF7F6FF0146184608BDF8B52B4B97
:1004C0002B4C9A69012042F009029A61DA690925E8
:1004D00042F40012DA61D4F8003C402623F07F4356
:1004E00043F0AA43C4F8003CC023C4F8103CFFF713
:1004F00021FF0120C4F8146CFFF71CFFC4F8106C36
:10050000FFF718FF013DF4D18027C4F8147CFFF7F2
:1005100011FFC4F8106CFFF70DFFC4F8107CFFF753
:1005200009FF4FF40042D4F8003C23F07F4343F02E
:100530005D43C4F8003C0F4B0F4CC3F800240F4A36
:10054000C3F8005411680E4DB1FBF4F1C3F8041464
:100550001168B1FBF5F1C3F81C141268B2FBF4F298
:100560000244C3F82024C3F80004F8BD0010024080
:10057000000001400050004040420F0010000020E9
:10058000400D03000B4BD3F8002442F40072C3F873
:100590000024D3F8142422F47062C3F81424D3F88E
:1005A000002442F40042C3F800240022C3F80024CF
:1005B000FFF784BF00500040014670B50A4D0B4C58
:1005C0002E68D4F814240A4001D0012008E0D4F8A1
:1005D000140410F4706004D12B689B1B042BF0D919
:1005E00070BD1046FCE700BF143D002000500040E5
:1005F000074A08491068D1F818349B0701D4012034
:10060000704713681B1A042BF5D90020704700BFF0
:10061000143D002000500040054B82B0D3F8142454
:100620000192D3F818340193019B02B0704700BFC8
:100630000050004070B50B4D0646D5F8003401203F
:1006400043F48073C5F800340C46FFF7B5FF40B1A2
:1006500044EA4604C5F810440220BDE87040FFF7A4
:10066000ABBF70BD0050004070B504460E46154645
:10067000FFF7BEFFF0B100212046FFF7DBFFC8B156
:100680008020FFF7C9FFFFF797FF98B10B4C802040
:10069000C4F81064FFF790FF60B10420C4F8105450
:1006A000FFF78AFF30B1D4F8003443F40073C4F884
:1006B000003470BDFFF766FF0020FAE700500040ED
:1006C0002DE9F0413F4C1F46D4F80034064643F470
:1006D0008063C4F8003488461546FFF789FF002878
:1006E0006CD000213046FFF7A5FF002866D080209F
:1006F000FFF792FFFFF760FF00285FD00420C4F8E7
:100700001084FFF759FF002858D0D4F8003443F480
:100710000073C4F80034FFF76BFF00284ED030465A
:100720000121FFF787FF0646002847D0012F19D186
:1007300072B6D4F8003423F48063C4F80034FFF7B1
:100740006BFFD4F8003443F40073C4F8003462B68D
:100750004020FFF731FF88B3D4F810342B703046B7
:10076000BDE8F081FFF758FF05F10B074020FFF7C8
:1007700023FF18B3D4F8103405F8013BAF42F5D18C
:100780000420FFF719FFC8B1D4F80034402023F447
:100790008063C4F80034D4F810343B70D4F80034CB
:1007A00043F40073C4F80034D4F810347B70FFF7BE
:1007B00003FF18B1D4F81034BB70D0E7FFF7E2FEA6
:1007C0000026CCE7005000400A46014602480123BB
:1007D0000078FFF775BF00BF0400002010B5044685
:1007E000FFF706FF20B9FFF7CDFE0024204610BD1D
:1007F00020460021FFF71EFF04460028F3D0FFF734
:100800000BFF054A0120D2F8003443F40073C2F80C
:100810000034FFF78FFDE9E70050004013B50023D7
:1008200068203E4C8DF807302070FFF7D7FF20B1CD
:100830003B4A136843F00103136075200DF1070173
:10084000FFF7C2FF28B19DF80730364A682B1360C6
:1008500018D069202070FFF7C1FF20B1304A13681B
:1008600043F00203136075200DF10701FFF7ACFFA1
:1008700010B9002002B010BD9DF80730294A682B3E
:100880001360F6D1247880226B212046FFF7ECFE1E
:100890000028EED06420FFF74DFD01226B21204699
:1008A000FFF7E2FE18B9002000F00100E2E70022A5
:1008B0006C212046FFF7D8FE0028F4D000226A21E0
:1008C0002046FFF7D1FE0028EDD003221A21204652
:1008D000FFF7CAFE0028E6D0092219212046FFF7BB
:1008E000C3FE0028DFD000221B212046FFF7BCFEFC
:1008F0000028D8D000221C212046FFF7B5FE002892
:10090000D1D0202237212046FFF7AEFE0028CAD0E2
:10091000012238212046FFF7A7FEC5E7040000208A
:10092000641200206012002006232DE9F341002408
:100930008DF80500B52016468DF80430ADF8062078
:10094000FFF732FD6220FFF72FFD254627460DF108
:10095000040818F8010B01370544EDB2FFF724FD38
:100960002C44042FE4B2F4D10027B7420ED328461A
:10097000FFF71AFD2046FFF717FD4FF04022D2F88F
:1009800000345B06FBD502B0BDE8F081C85DFFF71F
:100990000BFD0544EDB22C44E4B20137E5E74FF41A
:1009A0008073F0B5B1B000930C23042203FB010661
:1009B0006946047A151D2B19C02B19D803688F18A6
:1009C000C0326A4402F8C03C1A0A7A701A0C1B0E34
:1009D000FB700023BA70ADB2EA189C4292B209D8FB
:1009E0000C302C44B042A2B2E3D18A20FFF79CFF26
:1009F00031B0F0BD47684FEAC30CC0326A4427FAF1
:100A00000CF702F8C07C0133E6E77047024A13682E
:100A100001331360704700BF143D00204FF0804148
:100A20000A69F0B52A4E9707336802F0010023D512
:100A3000496B8FB2002846D00D0444D4591C47EAB4
:100A400001440D0C2349C1E90045234C21680131C3
:100A50002160224C2168013121602149214C098803
:100A600089B2218020490C6820490C602049214C22
:100A70000D68256000240C6054071AD54FF08041A2
:100A8000896B8FB208B309041FD4591C47EA01448B
:100A90000D0C1949C1E90045184C216819B1184DD0
:100AA00029680131296001212160164C216801313A
:100AB000216008B10133336002F00702D2434FF0E6
:100AC00080431A61F0BD1946B9E71946DEE700BF59
:100AD000003D0020F83C0020F43C0020541200208F
:100AE000E43C0020F03C0020E03C0020EC3C0020F6
:100AF000DC3C0020E83C0020083D0020103D0020A8
:100B0000581200205C1200201C4B10B5D3F80028AE
:100B100012F02F0F22D0140718BF1949D3F8040878
:100B20001EBF0B6801330B60910617D51549164C93
:100B30000B6801330B6015490B8824689BB24CB1DC
:100B4000134C01332488C3F30A03A4B29C4201D09E
:100B5000520704D00F4A13680133136010BD0A888E
:100B60000D4C92B2C0B2A0544FF040220B80D2F88C
:100B70000C3443F08003C2F80C34EFE7003001403E
:100B8000C0200020CC200020D0200020D620002033
:100B9000D4200020C4200020D82000204FF0402383
:100BA000D3F8003470B513F0280F19D0180748BFD8
:100BB000254A264E42BF1368013313604FF040238D
:100BC000234AD3F8043434881288A4B2651CC5F3D0
:100BD000090592B2AA4226D11B4A13680133136059
:100BE0004FF04023D3F80C2411061BD5D3F8002472
:100BF000120617D5174A18491088098880B289B299
:100C000088421AD01188154889B2415CC9B2C3F82C
:100C1000041413880133C3F30A031380104A1368C2
:100C20000133136070BD0F4ADBB21355FFF770FB41
:100C30000D4B43F824003580D2E7D3F80C2422F082
:100C40008002C3F80C24EDE750120020DA280020BF
:100C5000D8280020D4200020D6200020D820002032
:100C6000C8200020DC380020DC28002000232DE9EB
:100C7000F04F8A4D9DB08DF84F302B6843F4803390
:100C80002B60874B2A68910300F1CE80002B40F047
:100C9000C980844B844A1B68002613604FF47A7223
:100CA000B3FBF2F34FF0E022013B5361072396615F
:100CB0001361AB697D4943F01003AB614B687C481D
:100CC00023F4700343F400134B604FF400530B61A3
:100CD000AB69A1F5805143F4804343F00503AB6158
:100CE000D1F80438734C23F47F6343F49263C1F862
:100CF00004384FF4E121704B704F1B6803F56133EA
:100D0000B3FBF1F36E49C1F8083842F22C03C1F885
:100D10000C382023C2F80431FFF75AFB54F8040BB7
:100D2000FFF712FB1420FFF705FB07216548FFF7CB
:100D300036FE2420FFF738FB0021DFF88C8118F8FD
:100D4000010B002840F0A6802A20FFF72DFB0B099D
:100D5000F85C01F00F01FFF727FB785CFFF724FB3D
:100D60000D20FFF721FB0A20FFF71EFB4FF040226A
:100D7000D2F800345B06FBD564200136FFF7DAFABF
:100D8000032ECBD14FF4E130FFF7DEFA72B6002428
:100D90004E4F4F4B3C801C8062B612214D48FFF7EE
:100DA000FEFD1420FFF7C6FA01214B48FFF7F7FDBF
:100DB0001420FFF7BFFA082248490120FFF7B4FDCD
:100DC0001420FFF7B7FA082201204549FFF7ACFDD0
:100DD00001214448FFF7E3FD6420FFF7ABFAFFF77A
:100DE0006DFBC820FFF7A6FAFFF718FD002840F0BA
:100DF0008B80E1223C4B3D481A60FFF7E9FA304A0C
:100E0000D2F800385C06FBD596204FF400523849E2
:100E10000B68B3FBF0F313F0010F244B14BF5A61BE
:100E20001A61F5E7013B2DE7002B3FF432AF1222A8
:100E3000304B1A606B6823F4741323F4E06343F4BB
:100E4000E81343F480636B602B6843F080732B607E
:100E5000134B2A68920104D4002B3FF41AAF013BD4
:100E6000F7E7002B3FF415AF6B6823F0030343F063
:100E700002036B606B6803F00C03082BFAD11E4B66
:100E8000084A1E4913601E4A11600B4A13601D4A2E
:100E90001360FEE64140FFF787FA50E7001002407A
:100EA00040420F0014000020781200200010014082
:100EB00058230008882A00080C0000200329000895
:100EC00000300140282A0008082A0008DA280020FB
:100ED000D8280020302900081429000828290008F3
:100EE000202900087C2A00087C12002064230008C6
:100EF000143D00200020024000A24A0400512502B7
:100F00001000002008000020AB69964A43F004035B
:100F1000AB61EB69944943F00103EB61D2F800380F
:100F2000012523F0FF0343F08803C2F800384FF097
:100F30008043C2F814688D4A1C601268B2FBF1F25B
:100F4000013A9A624FF6FF72DA6240F201125C6275
:100F50009A6111221A6207225D614FF080511C6173
:100F6000DA604FF0E022C2F800111D6072B63B88D3
:100F70007F4A9BB2138062B63A200DF14F01FFF712
:100F800023FC72B67B4B1C6062B61420FFF7D2F9CB
:100F9000A34679482646FFF71BFA7848FFF718FA68
:100FA0007748FFF715FA7748FFF712FA7648FFF708
:100FB0000FFA7648FFF70CFA7548FFF709FA7548FB
:100FC000FFF706FA7448FFF703FA7448FFF700FAD0
:100FD0007348FFF7FDF97348FFF7FAF97248FFF716
:100FE000F7F97248FFF7F4F9714B1B78682B14BFBF
:100FF00039203820FFF7E2F96E48FFF7E9F96E482B
:10100000FFF7E6F96D48FFF7E3F96D48FFF7E0F900
:101010006C48FFF7DDF96C48FFF7DAF96B48FFF72A
:10102000D7F96B48FFF7D4F96A4BCDE91044CDE905
:101030000E44CDE907441D60674D0C9406940D9451
:10104000099405944A49654A0B8812889BB292B26A
:10105000934200F0D782624AD75C624AFFB252F8EC
:1010600023800133C3F309030B8072B6FFF750F9F5
:1010700062B62B78072B00F2C780DFE803F0040983
:10108000131B28354F66B52FDCD101232B70D9E710
:10109000622F05D0A7F1B500474247412F70D1E735
:1010A0000227FBE7504B1F70504B1F70504B1F70B7
:1010B0000323EBE74D4A4F4B1F7013783B44DBB2E1
:1010C00013704B4A11780B4413700423DEE7474A30
:1010D000494B1F8013783B44DBB21370444A1178AC
:1010E0000B4413700523D1E7434B40491A8842EA69
:1010F00007221A800B78B2F5805F3B44DBB20B709D
:101100003B49087803440B704FF000033B490B80C8
:10111000BCD89A420CBF07230623B7E737490B8890
:101120005A1C92B20A803649CF5430490B783B445E
:10113000DBB20B702E49087803440B702E4B1B88D2
:1011400093427FF47FAF0723A0E7284B1B78BB4275
:1011500017BF2C4A0823136801331CBF13600023F8
:1011600094E700BF0000014040420F00080000204B
:10117000D8280020103D002099230008C023000833
:10118000E323000806240008392400085B24000833
:101190008A240008E0240008F72400080B25000832
:1011A0002B25000842250008612500088925000834
:1011B00004000020F42400089F25000809260008E8
:1011C000C52600081A2700086B270008DE2700083C
:1011D000F42700087C120020D4110020DA28002017
:1011E000DC380020DC280020D3110020D2110020A0
:1011F000D1110020D0110020CE110020CC110020F0
:10120000CC01002048120020A74B1B78BB4240F0C5
:10121000EA81A64BDFF898E21F78A64BDEF800C003
:101220001A78A54B0CF1010C052F1B88CEF800C0D5
:101230000FD1022B05D1012A07D1A04A136801332F
:10124000136000229E4B1A70FCE6002AF9D19D4AD9
:10125000F4E7A0EB0808B0EB080061F10001022FF1
:101260000A900B9121D1322A40F0D480082BE8D18A
:10127000954A136801331360944B1A68944B1A60B3
:10128000944A5378D90701D5934AD7E79088934970
:101290000880D08812789249012A0880D1D903F0B9
:1012A0000603042BCDD18F4AC8E7012F40F0768189
:1012B000072A5DD15B2BC4D9DDE90A78854B8A49C1
:1012C0001846C1E90078FFF7ECF888495A7D0860B4
:1012D000187D874908608749987D0A608649920988
:1012E0000860864903F118000A60D97D844A1160BC
:1012F000FFF7D7F8834A106003F11C00FFF7D1F81D
:10130000814A106003F12400FFF7CBF87F4A106098
:1013100003F12800FFF7C5F87D4A106003F12C00A7
:10132000FFF7BFF87B4A106003F13000FFF7B9F810
:10133000794A106003F13400FFF7B3F8774A106080
:1013400003F13800FFF7ADF8754A106003F13C0077
:10135000FFF7A7F8734A106003F14400FFF7A1F804
:10136000714A1060B3F84C20704B1A60704A65E700
:10137000352A7FF466AF072B7FF663AFA3F108022F
:101380000C235449B2FBF3F248794FF0000840288F
:10139000034628BF4023D2B2934228BF1346654A72
:1013A0005FFA88F0834201F10C0702F1080212D8BB
:1013B0004848FFF776F8604A106072B65F4A1188B5
:1013C0005F4A11805F4A11685F4A117062B65F4AD6
:1013D00013705F4A32E701F11000FFF762F817F867
:1013E00004CC898902F808CC17F803CCC0F3C000FC
:1013F00002F807CC17F802CC22F8041C02F806CC3D
:1014000017F801CC394602F805CC02F8020C08F1B5
:101410000108C5E7152A7FF414AF0F2B7FF611AF33
:101420002C4A517B01297FF40CAFD77A103B5A0923
:10143000C3F34F13BB4238BFD7B2602F88BF454AB2
:10144000DFF8909088BF1368484683BF013313606C
:101450004FF06008B846FFF726F83F4BB9F8082070
:10146000C3E900013D4B09F110001A8099F80A20E8
:101470003B4B1A7099F80C203A4B1A703A4BDDE945
:101480000A12C3E900120023384AD9B2414577D382
:10149000374B384A1F70384B83F80080136801338C
:1014A0001360364ACAE600BFD1110020D3110020D4
:1014B0004C120020D0110020CE1100204412002038
:1014C000D411002040120020BC200020143D002038
:1014D000B0200020CC010020B4200020AE2000204D
:1014E000AC200020B8200020281200202412002068
:1014F00020120020181200201412002010120020C8
:101500001C1200200C1200200812002004120020DF
:1015100000120020FC110020F8110020F41100201E
:10152000F0110020EC110020E8110020E41100204F
:101530003C120020AC1E0020A81E0020F03C002021
:10154000A61E0020E83C0020A41E0020A51E0020AE
:10155000A01E0020301200209812002088120020C7
:10156000871200208612002090120020A012002076
:1015700084120020341200208512002080120020E6
:101580000146944600F1200E51F8049B71454CF839
:10159000049BF9D101332032203076E70D2F7FF400
:1015A00050AE012A7FF44DAE102B7FF44AAE0F49A6
:1015B0000846FEF776FF8B898A7BC97B01F00F0115
:1015C00072B60B4F02F0010238600A480A430380EA
:1015D00007D1003B18BF0123074A136062B6074AD0
:1015E0002CE60023F8E7064A28E600BFCC010020DD
:1015F000E03C0020E43C0020DC3C002038120020CD
:1016000048120020B84B1B68A3B9B84B1B688BB9B4
:10161000042C0FD8B64F109A3B689B1A002B09DB9D
:101620000121B448FFF7BBF93B68013403F57A7335
:10163000E4B21093AD4B1B680BB9042C02D9012204
:10164000A94B1A60DFF8A882119AD8F800309B1ACB
:10165000002B71DB72B6A84BD3F800A0A74BD3F8D0
:101660000090A74B1B680093A64B1F6862B6A64864
:10167000FEF7AEFED8F80000FEF7B3FE2C20FEF712
:101680009DFE994B1868FEF7ACFE2C20FEF796FEE7
:101690005046FEF7A6FE2C20FEF790FE4846FEF7C9
:1016A000A0FE2C20FEF78AFE0098FEF79AFE2C2062
:1016B000FEF784FE3846FEF794FE2C20FEF77EFEF1
:1016C000924B1868FEF78DFE2C20FEF777FE904BAC
:1016D0001F683846FEF785FE2C20FEF76FFE8D4B07
:1016E0001868FEF77EFE2C20FEF768FE8A4B18680D
:1016F000FEF777FE2C20FEF761FE884B1888FEF778
:1017000070FE2C20FEF75AFE854B1888FEF769FE06
:101710002C20FEF753FE002F00F0A181814BD8F85A
:1017200000001B68C01AFEF75CFE7F48FEF750FE03
:101730006F4B1B6864331193DFF8F0910D9AD9F861
:101740000030934200F0998072B6794B1F88794B34
:10175000BFB2D3F8008062B67748FEF739FE38464C
:10176000FEF73FFE2C20FEF729FE744B1868FEF7AB
:1017700038FE2C20FEF722FE4046FEF732FE2C20DB
:10178000FEF71CFE6E4BD3E90001FEF744FE2C2051
:10179000FEF714FE6B4B1868FEF723FE2C20FEF7B5
:1017A0000DFE694B1868FEF71CFE2C20FEF706FEA6
:1017B000664B1868FEF715FE2C20FEF7FFFD644B04
:1017C0001868FEF70EFE2C20FEF7F8FD614B186836
:1017D000FEF707FE2C20FEF7F1FD5F4B1868FEF7C1
:1017E00051FE2C20FEF7EAFD5C4B1868FEF74AFE1E
:1017F0002C20FEF7E3FD5A4B1868FEF743FE2C2021
:10180000FEF7DCFD574B1868FEF7EBFD2C20FEF7CA
:10181000D5FD554B1868FEF7E4FD2C20FEF7CEFDF4
:10182000524B1868FEF72EFE2C20FEF7C7FD504BDA
:101830001868FEF727FE2C20FEF7C0FD4D4B1868F8
:10184000FEF720FE2C20FEF7B9FD4B4B1868FEF783
:10185000C8FD2C20FEF7B2FD484B1868FEF7C1FD0D
:101860002C20FEF7ABFD464B1868FEF7BAFD2E485C
:10187000FEF7AEFDD9F800300D93424B09991A6876
:101880008A4200F0D18072B61B6809933E4BD3E9BF
:101890000089274B1F883D4BBFB21B680093254B27
:1018A000D3F800A062B63A48FEF792FD0998FEF719
:1018B00098FD3848FEF78CFD49464046FEF7ABFDE3
:1018C0003548FEF785FD3846FEF78BFD3348FEF7B9
:1018D0007FFD0098FEF785FD3148FEF779FD504603
:1018E000FEF77FFD5EE000BFD02000203412002014
:1018F000143D002014290008CC200020C82000201E
:10190000C4200020C02000201A2800085012002007
:10191000BC200020B8200020B4200020AE200020F1
:10192000AC200020B0200020F42400083C1200204D
:10193000F03C0020E83C0020212800082412002070
:1019400028120020201200201C1200201812002053
:101950001412002010120020081200200C12002087
:101960000412002000120020FC110020F8110020B9
:10197000F4110020F0110020EC110020E8110020EB
:10198000E4110020F43C0020F83C0020EC3C002056
:1019900027280008332800083E28000849280008A6
:1019A000562800083E48FEF713FD3E4B1868FEF728
:1019B00018FD3D48FEF70CFD3C4B1868FEF711FD85
:1019C0003B48FEF705FD3B4B1868FEF70AFD3A4819
:1019D000FEF7FEFC394B1868FEF754FD3848FEF759
:1019E000F7FC384B1868FEF74DFD3748FEF7F0FC62
:1019F000364B1868FEF746FD3548FEF7E9FC354BD7
:101A00001868FEF73FFD3448FEF7E2FC334B1868D8
:101A1000FEF738FD3248FEF7DBFC324B1868FEF764
:101A200031FD3148FEF7D4FC304B1A68002A3FF4F0
:101A300009AB72B62E4AD2E90012CDE9001200229B
:101A40001A6062B63A200DF14F01FEF7BDFE48B9AB
:101A5000284A0136136801331360FFF7F3BA4FF0D9
:101A6000FF3060E624480E233B21007814AAFEF7DD
:101A700027FE002844D11F4A01361368042E03F1C3
:101A8000010313607FF6DEAA1C48FEF7A1FC1420B8
:101A9000FEF750FCFEF7C2FE0026FFF7D3BA00BFE8
:101AA000632800082412002071280008201200205A
:101AB000772800081C120020802800080812002047
:101AC000892800080C120020922800080412002027
:101AD0009C280008F8110020A8280008F411002014
:101AE000B4280008F0110020F4240008103D002064
:101AF000083D00206812002004000020C0280008D3
:101B0000059B079A134308D0059A009B9B1A0593DF
:101B1000079A019B63EB02030793089B5F1CBDF8C8
:101B200050305BBAADF86030BDF852305BBAADF8FA
:101B30006230BDF854305BBAADF86430BDF8563051
:101B40005BBAADF86630BDF858305BBAADF86830B6
:101B5000BDF85A305BBAADF86A30BDF85C305BBA9C
:101B6000ADF86C3072B6AC49AC4BD3E900230E68CB
:101B7000AB49CDE90223B1F80080AA491FFA88F8E1
:101B8000D1F8009062B6B9F1000F00F01D814FF45A
:101B90007A71009B029AA6FB01619342019B039A12
:101BA00073EB0200009B029AC0F0F3809A1A03982C
:101BB000019B63EB000396194FF08C0241EB030A83
:101BC00099499A4BB14272EB0A00C0F0DA804FF0AB
:101BD00001099748FEF7FCFB0898FEF702FC2C2051
:101BE000FEF7ECFB4046FEF7FCFB2C205146FEF7CF
:101BF000E5FB3046FEF70FFC2C20FEF7DFFB4846E6
:101C0000FEF7EFFB2C20FEF7D9FBDDE90001FEF724
:101C100002FC0026DFF81C920DF1600838F9021B67
:101C20002C2029F81610FEF7C9FB002903DA2D2015
:101C3000FEF7C4FB494208460136FEF7D2FB072EE9
:101C4000ECD17D48FEF7C4FB7C4BD3F800800E9BA3
:101C5000984518BF4FF0000BB8F1000F4BD0784BF0
:101C60001B785B4540F2B4807648FEF7B1FB764BBB
:101C7000764E1888FEF7B5FB2C20FEF79FFB744BC1
:101C80000BF101091868FEF7ACFB2C20FEF796FB60
:101C9000704B5FFA89F91878FEF7A3FB2C20FEF74A
:101CA0008DFB16F83B00FEF79CFB06EBCB062C20C9
:101CB000FEF784FB7078FEF794FB2C20FEF77EFB8A
:101CC000B078FEF78EFB2C20FEF778FB96F9030028
:101CD000FEF7D8FB2C20FEF771FBB6F90400FEF7E7
:101CE000D1FB2C20FEF76AFBB079FEF77AFB524855
:101CF000FEF76EFBCB46584BD3F800A00F9B9A45DE
:101D000000F0BE805548FEF763FB554B1888FEF780
:101D100068FB2C20FEF752FB524BD3E90060FEF724
:101D20009FFB3046FEF79CFB2C20FEF747FB4E4BFB
:101D300093F90000FEF7A6FB2C20FEF73FFB4B4B70
:101D40001878FEF74EFB2C20FEF738FB484B18782E
:101D5000FEF747FB2C20FEF731FB464B1878FEF7C9
:101D600040FB2C20FEF72AFB434BD3E90001FEF792
:101D700052FB3148FEF72CFB0023069302230C9301
:101D8000FAE0F61808F101086AF18C0A1FFA88F8DF
:101D900018E7D01A039A019B62EB0303224A86429A
:101DA00071EB030C03D3361A61EB030A0FE701381A
:101DB00043F1FF3308F1FF38801B63EB0103164644
:101DC0008C211FFA88F8EAE74E46CA46C84600E763
:101DD00091D12A48FEF7FCFA1B4B1888FEF701FB4D
:101DE0002C20FEF7EBFA1A4B1868FEF7FAFA2C20B3
:101DF000FEF7E4FA174B1878FEF7F3FA2C20FEF7FB
:101E0000DDFA5846FEF7EDFA0B48FEF7E1FA0BF162
:101E100001035FFA83FB6EE7EC3C0020F83C0020F6
:101E2000F03C0020E83C0020FF9FE3D000601C2F26
:101E3000D5280008D6110020F4240008A01E002098
:101E4000A51E0020DA280008A61E0020AC1E0020D7
:101E5000A81E0020A41E002080120020E8280008F0
:101E6000881200209812002087120020861200207D
:101E7000851200208412002090120020DF28000824
:101E80000C9B002B00F0A380524B1E78069B9E42B9
:101E900040F294800133DBB202934F4E069B4F48D1
:101EA00006EB4316FEF794FA307DFEF79AFA2C20E3
:101EB000FEF784FA707DFEF794FA2C20FEF77EFA86
:101EC000B07DFEF78EFA2C20FEF778FAF07DFEF753
:101ED00088FA2C20FEF772FA3046FEF7E4FA8146C3
:101EE0000846FEF7BDFA4846FEF7BAFA2C20FEF780
:101EF00065FA06F10800FEF7D6FA81460846FEF7B5
:101F0000AFFA4846FEF7ACFA2C20FEF757FA06F176
:101F10001000FEF7C6FAFEF7A3FA2C20FEF74EFAE1
:101F2000308BFEF75EFA2C20FEF748FAB07EFEF703
:101F300058FA2C20FEF742FAF07E00F00F00FEF770
:101F400050FA2C20FEF73AFA307F00F00F00FEF72F
:101F500048FA2C20FEF732FA707F00F00F00FEF7EF
:101F600040FA2C20FEF72AFAB07FFEF73AFA1C4816
:101F7000FEF72EFA029B06931A4B059A1F601A4B26
:101F8000059807991A604FF47A720023FEF7D0F88B
:101F90006422164B1860B7FBF2F302FB1373032B9A
:101FA0004FF40053124A94BF53611361009BCDE973
:101FB0000E8A0593019BCDE907376DE50D48FEF7C5
:101FC00007FA3046FEF70DFA0548FEF701FA00233E
:101FD000D5E600BF85120020A0120020EE280008E0
:101FE000F4240008741200206C12002070120020EB
:101FF00000100140F92800080D488546FEF705FD50
:102000000C480D490D4A002302E0D458C450043353
:10201000C4188C42F9D30A4A0A4C002301E0136029
:102020000432A242FBD3FEF7E3F8FEF71FFEFEE701
:10203000005000200000002018000020A82A0008FE
:1020400018000020183D0020FEE700002DE9F047B1
:10205000089D0F4604468E46002B48D18A421646FC
:1020600061D9B2FA82F24AB1C2F1200301FA02FE4A
:1020700020FA03F3964043EA0E0E94404FEA164CC2
:10208000BEFBFCF1B7B20CFB11EE01FB07F0230C19
:1020900043EA0E43984209D9F31801F1FF3E80F05C
:1020A000ED80984240F2EA80023933441B1AB3FBB8
:1020B000FCF00CFB103300FB07F7A4B244EA034426
:1020C000A74209D9341900F1FF3380F0D980A74223
:1020D00040F2D6803444023840EA01400021E41B3B
:1020E0001DB10023D440C5E90043BDE8F0878B4211
:1020F00006D90DB1C5E9000100210846BDE8F08709
:10210000B3FA83F1002947D1BB4202D3824200F2E5
:102110000481841A67EB030201209646002DE4D067
:10212000C5E9004EE1E7002A00F09080B2FA82F2A1
:10213000002A40F0A780881B0121370C1FFA86FE79
:10214000B0FBF7FC07FB1C00230C43EA00430EFB2B
:102150000CF0984207D9F3180CF1FF3802D29842DC
:1021600000F2E080C4461B1AB3FBF7F007FB103304
:102170000EFB00FEA4B244EA0344A64507D9341975
:1021800000F1FF3302D2A64500F2C9801846A4EB45
:102190000E0440EA0C40A3E7C1F120068B4022FA6E
:1021A00006FC4CEA030C27FA06FA4FEA1C49BAFB74
:1021B000F9F88F4020FA06F309FB18AA1FFA8CFEE3
:1021C0003B4300FA01F708FB0EF01C0C44EA0A44FA
:1021D000A04202FA01F20BD91CEB040408F1FF3A09
:1021E00080F09980A04240F29680A8F102086444F1
:1021F000241A98B2B4FBF9F309FB134403FB0EFE57
:1022000040EA0444A64508D91CEB040403F1FF305E
:102210007FD2A6457DD9023B644443EA0840A4EB43
:102220000E04A0FB028E74454346F14661D35ED096
:1022300055B1FA1A64EB090404FA06F622FA01F31E
:102240001E43CC40C5E9006400214EE743084FEA35
:10225000510C43EAC1710A0C42EA0C428BB2C4072A
:10226000B2FBF6F143EA0243BCFBF6FCB64630464D
:1022700037461F22181A41EA0C4161E7714615E7FB
:10228000184629E7C2F1200321FA03F0964024FA08
:1022900003F397403B43370CB0FBF7F807FB1800FC
:1022A0001FFA86FE190C41EA004108FB0EF0884235
:1022B00004FA02F43AD9711808F1FF3C01D28842BD
:1022C0001ED8091AB1FBF7F808FB0EF007FB18112E
:1022D0009BB243EA014383422FD2F31808F1FF3146
:1022E000C8D28342C6D2A8F102013344C2E74745AF
:1022F0009ED2B8EB02036EEB0C0E0138F14697E765
:10230000301A0144A8F1020CB1FBF7F808FB0EF0FB
:10231000DCE7034681E7D0466AE70846FEE6344438
:10232000023834E7ACF1020C33441CE7091AC44606
:10233000B1FBF7F808FB0EF0C8E741469AE700BF8B
:10234000F8B500BFF8BC08BC9E467047F8B500BFA2
:08235000F8BC08BC9E46704772
:102358002320626F6F74696E670D0A00232045524F
:10236800524F523A204D505536303530206E6F74EA
:1023780020666F756E643B20636865636B20332E3F
:1023880033562F474E442F5042362F5042370D0AAE
:102398000023206D7075363035305F6639705F6E9A
:1023A800617669676174696F6E5F70726F746F636D
:1023B8006F6C5F76330D0A00232074696D65723D7A
:1023C80074696D325F316D687A5F34386269745F41
:1023D800657874656E6465640D0A002320707073F7
:1023E8003D6639705F74705F7061305F74696D321B
:1023F8005F6368315F726973696E670D0A00232035
:10240800747269676765723D6D7075363035305F17
:10241800646174615F72656164795F7061315F7472
:10242800696D325F6368325F726973696E670D0A3E
:102438000023206C6F676765725F756172743D7504
:1024480073617274315F7061395F3436303830309F
:102458000D0A0023206639705F756172743D7573CB
:10246800617274325F7061325F7061335F31313530
:102478003230305F7562785F7274636D33696E0DE8
:102488000A0023206639705F6F75747075743D6E2D
:1024980061765F7076745F31687A5F6E61765F73BC
:1024A80061745F31687A5F72786D5F726177785FA7
:1024B80031687A5F72786D5F73667262785F616C9B
:1024C8006C5F74696D5F74705F31687A5F67707391
:1024D8005F677269640D0A00232073616D706C6513
:1024E8005F726174655F687A3D3130300D0A002390
:1024F80020616363656C5F72616E67655F673D321B
:102508000D0A002320616363656C5F7363616C650A
:102518005F6C73625F7065725F673D313633383464
:102528000D0A0023206779726F5F72616E67655FBD
:102538006470733D3235300D0A0023206779726F5D
:102548005F7363616C655F6C73625F7065725F6413
:1025580070733D3133310D0A00232074656D706549
:102568007261747572655F646567433D74656D700B
:102578005F7261772F3334302B33362E35330D0AA3
:102588000023206D70755F6932635F6164647265F2
:1025980073733D307836002320494D552C73616D97
:1025A800706C652C6770735F7765656B2C677073EB
:1025B8005F746F775F75732C74696D655F76616C96
:1025C80069642C74696D65725F75732C61785F72CC
:1025D80061772C61795F7261772C617A5F726177BC
:1025E8002C74656D705F7261772C67785F726177A4
:1025F8002C67795F7261772C677A5F7261770D0A51
:10260800002320474E53532C6770735F7765656BC3
:102618002C6770735F746F775F6D732C74696D6569
:102628005F76616C69642C72785F74696D65725F3E
:1026380075732C6669782C6E756D5F73762C666C75
:102648006167732C666C616773322C636172725FA9
:10265800736F6C6E2C6C61745F65372C6C6F6E5F7A
:1026680065372C686D736C5F6D6D2C685F61636393
:102678005F6D6D2C765F6163635F6D6D2C76656C45
:102688005F6E5F6D6D732C76656C5F655F6D6D73E6
:102698002C76656C5F645F6D6D732C675F73706516
:1026A80065645F6D6D732C735F6163635F6D6D73DC
:1026B8002C70646F705F783130300D0A002320531E
:1026C80041542C6770735F7765656B2C6770735F17
:1026D800746F775F6D732C74696D655F76616C6973
:1026E800642C676E73735F69642C73765F69642CFE
:1026F800636E6F5F6462687A2C656C65765F64658B
:10270800672C617A696D5F6465672C757365640D04
:102718000A002320524157582C6770735F7765650C
:102728006B2C7263765F746F775F66363468657892
:102738002C6C6561705F732C7265635F7374617470
:102748002C6E756D5F6D6561732C746F74616C5F51
:102758006D6561732C72785F74696D65725F7573EE
:102768000D0A002320524157585F4D4541532C67AD
:102778006E73735F69642C73765F69642C73696721
:102788005F69642C667265715F69642C70725F663C
:1027980036346865782C63705F6636346865782CE3
:1027A800646F5F6633326865782C6C6F636B5F6D3E
:1027B800732C636E6F2C70725F7374642C63705F1C
:1027C8007374642C646F5F7374642C74726B5F73BE
:1027D8007461740D0A002320524157585F454E44D6
:1027E8002C6E756D5F6D6561730D0A002320726133
:1027F80077785F666C6F61745F6865783D69656559
:10280800653735345F626974735F65786163740D29
:102818000A00235254434D2C00474E53532C002397
:102828002073796E632C7070733D002C74696D652C
:10283800725F75733D002C6770735F7765656B3DDC
:10284800002C6770735F746F775F6D733D002C7435
:10285800696D655F76616C69643D002C7076745FA4
:1028680069746F775F6D733D002C6669783D002C45
:102878006E756D5F73763D002C6C61745F65373DD6
:10288800002C6C6F6E5F65373D002C686D736C5F54
:102898006D6D3D002C76656C5F6E5F6D6D733D00F0
:1028A8002C76656C5F655F6D6D733D002C76656C8D
:1028B8005F645F6D6D733D0023204552524F523A5D
:1028C800204932432072657472790D0A00494D55CA
:1028D8002C005341542C005341545F454E442C0066
:1028E800524157582C00524157585F4D4541532C7F
:1028F80000524157585F454E442C00303132333432
:10290800353637383941424344454600A5029120BF
:102918000A0000000100000002130001000000008E
:1029280002130000000000000100213064000000D4
:102938000200000002002130010000000200000037
:102948000300212001000000010000000700912081
:102958000A00000001000000160091200A00000093
:10296800010000007E01912001000000010000002C
:1029780023000520000000000100000030000520B1
:1029880001000000010000000200054040420F0065
:10299800040000000300054040420F00040000004E
:1029A80004000540A0860100040000000500054061
:1029B800A0860100040000000700051001000000C7
:1029C80001000000080005100100000001000000DF
:1029D8000900051001000000010000000A000510B0
:1029E80001000000010000000B00051001000000BC
:1029F800010000000C00052001000000010000009B
:102A0800505542582C34312C312C303030312C3048
:102A18003030312C3131353230302C30000000006C
:102A28000100524000C201000400000001007310C0
:102A38000100000001000000020073100000000007
:102A480001000000040073100100000001000000F4
:102A58000100741001000000010000000200741061
:102A680000000000010000000400741000000000D5
:102A7800010000006902912001000000010000002F
:0C2A8800000807000096000000C20100DA
:082A9400B8F5FF7F010000000E
:082A9C0049020008CD01000809
:042AA400A501000880
:102AA800340000206800000000127A0000127A004A
:082AB80000127A0000127A00FE
:0400000508001FF9D7
:00000001FF
